:100000000C944D050C9475050C9475050C94FE1B11
:100010000C94FE1B0C94FE1B0C9475050C9475053A
:100020000C9475050C9475050C9475050C94750568
:100030000C9475050C9475050C9475050C94750558
:100040000C943D1A0C9475050C94AD1A0C94871AF7
:100050000C9475050C9475050C9475050C94750538
:100060000C94DF1A0C94750500000000003E5B4FF5
:100070005B3E3E6B4F6B3E1C3E7C3E1C183C7E3C08
:10008000181C577D571C1C5E7F5E1C00183C180016
:10009000FFE7C3E7FF0018241800FFE7DBE7FF30A6
:1000A000483A060E2629792926407F050507407F14
:1000B00005253F5A3CE73C5A7F3E1C1C08081C1C87
:1000C0003E7F14227F22145F5F005F5F06097F017D
:1000D0007F006689956A606060606094A2FFA29468
:1000E00008047E040810207E201008082A1C080836
:1000F0001C2A08081E101010100C1E0C1E0C303884
:100100003E3830060E3E0E06000000000000005F84
:1001100000000007000700147F147F14242A7F2AA0
:100120001223130864623649562050000807030062
:10013000001C2241000041221C002A1C7F1C2A08AE
:10014000083E080800807030000808080808000011
:1001500060600020100804023E5149453E00427F85
:10016000400072494949462141494D331814127FD4
:100170001027454545393C4A494931412111090774
:100180003649494936464949291E000014000000F5
:1001900040340000000814224114141414140041C7
:1001A00022140802015909063E415D594E7C121184
:1001B000127C7F494949363E414141227F414141BC
:1001C0003E7F494949417F090909013E4141517337
:1001D0007F0808087F00417F41002040413F017FA8
:1001E000081422417F404040407F021C027F7F0470
:1001F00008107F3E4141413E7F090909063E4151B9
:10020000215E7F09192946264949493203017F01A8
:10021000033F4040403F1F2040201F3F4038403FA9
:10022000631408146303047804036159494D4300BF
:100230007F4141410204081020004141417F0402F6
:10024000010204404040404000030708002054548D
:1002500078407F284444383844444428384444286B
:100260007F385454541800087E090218A4A49C78BE
:100270007F0804047800447D40002040403D007F1A
:100280001028440000417F40007C047804787C08FA
:100290000404783844444438FC18242418182424CE
:1002A00018FC7C08040408485454542404043F44B3
:1002B000243C4040207C1C2040201C3C4030403CE2
:1002C00044281028444C9090907C4464544C440042
:1002D00008364100000077000000413608000201A6
:1002E0000204023C2623263C1EA1A161123A404092
:1002F000207A38545455592155557941225454780F
:1003000042215554784020545579400C1E527212A7
:100310003955555559395454545939555454580030
:1003200000457C410002457D420001457C407D1234
:1003300011127DF0282528F07C5455450020545496
:100340007C547C0A097F4932494949323A44444441
:100350003A324A4848303A4141217A3A424020787C
:10036000009DA0A07D3D4242423D3D4040403D3C7D
:1003700024FF2424487E4943662B2FFC2F2BFF09A2
:1003800029F620C0887E0903205454794100004496
:100390007D413048484A32384040227A007A0A0A81
:1003A000727D0D19317D2629292F282629292926F4
:1003B00030484D4020380808080808080808382F39
:1003C00010C8ACBA2F102834FA00007B00000814C3
:1003D0002A142222142A14085500550055AA55AA99
:1003E00055AAFF55FF55FF000000FF00101010FF39
:1003F00000141414FF001010FF00FF1010F010F094
:10040000141414FC001414F700FF0000FF00FF1484
:1004100014F404FC141417101F10101F101F1414D0
:10042000141F00101010F0000000001F101010101A
:100430001F10101010F010000000FF10101010100E
:1004400010101010FF10000000FF140000FF00FF4C
:1004500000001F10170000FC04F4141417101714E8
:1004600014F404F40000FF00F7141414141414140A
:10047000F700F7141414171410101F101F1414147D
:10048000F4141010F010F000001F101F0000001FE7
:1004900014000000FC140000F010F01010FF10FF1A
:1004A000141414FF141010101F00000000F010FFAF
:1004B000FFFFFFFFF0F0F0F0F0FFFFFF0000000093
:1004C00000FFFF0F0F0F0F0F3844443844FC4A4A17
:1004D0004A347E02020606027E027E0263554941CC
:1004E000633844443C04407E201E2006027E020203
:1004F00099A5E7A5991C2A492A1C4C7201724C3017
:100500004A4D4D303048784830BC625A463D3E49ED
:100510004949007E0101017E2A2A2A2A2A44445F91
:10052000444440514A444040444A51400000FF0185
:1005300003E080FF000008086B6B08361236243693
:10054000060F090F060000181800000010100030F8
:1005500040FF0101001F01011E00191D1712003C80
:100560003C3C3C0000000000000103070F1F3F7FE0
:100570000080C0E0F0F8FCFEDB40A4A62EAF200017
:10058000A1C8D300408DAED580A800006000000057
:100590000000000000000000000000E0000000007B
:1005A00000000000000000000001E000000000006A
:1005B000000000000000000001F00000000000004A
:1005C0000000000000000003F00000000000000038
:1005D00000000000000007F0000000000000000024
:1005E000000000000007F80000000000000000000C
:1005F000000000000FF800000003C0007E000001B2
:10060000E0007F0FF800000003C000FE000001E0E2
:1006100000FFEFF800000003C000FE000001E00052
:10062000FFFFF800000003C000F00000000F007F93
:10063000FE7FC0000003C000F00000000F003FFE7E
:100640007FF83FF1FBCFFCFEF3BC3DEFE01FFE7FE8
:10065000FF7FFBFFDFFEFEFFBC3DEFE01FC6FFFF9D
:100660007FFBFFDFFEFEFFBC3DEFE00FE3C7FE7840
:100670007BC3DE1EF0FFBC3DEF0007FF87FC787BED
:10068000C3DE1EF0F83C3DEF0001FFFFF0007BC32E
:10069000C01EF0F03C3DEF0001F37FE03FFBC3CF15
:1006A000FEF0F03C3DEF0003E33F807FFBC3DFFE45
:1006B000F0F03C3DEF0007E73C00787BC3DE1EF026
:1006C000F03C3DEF0007FFBE00787BC3DE1EF0F07C
:1006D0003C3DEF0007FFFE00787BC3DE1EF0F03CE0
:1006E0003DEF000FFFFE007FFBFFDFFEF0F03FFD60
:1006F000EFE00FFFFF007FFBFFDFFEF0F03FFDEFBD
:10070000E00FF9FF003E79F9CF9EF0F01F3DE7E0E2
:100710001FF1FF0000000000000000000000001FAB
:1007200080FF007FFFFFFFFFFFFFFFFFFFE01C00D8
:100730007F007FFFFFFFFEB46D888D18E000001F73
:10074000007FFFFFFFFE95AD7DB577E000000F0055
:100750007FFFFFFFFEA5AD9D8D19E0000006007F25
:10076000FFFFFFFEB5ADEDB57EE00000000000012B
:100770008000000000000000000003800000000076
:10078000000000000007C0000000000000000000A2
:1007900007C00000000000000000000FC0000000C3
:1007A0000000000000001FE000000000000000004A
:1007B000001FE00000000000000000003FE000001B
:1007C000000000000000003FF000000000000000FA
:1007D00000007FF0000000000000001FF87FF00024
:1007E0000000000000003FFE7FF00000000000005D
:1007F000003FFF7FF0000000000000001FFFFBE053
:10080000000000000000000FFFF9FFC00000000022
:1008100000000FFFF9FFF800000000000007FFF1E3
:10082000FFFF00000000000003FC73FFFF800000DA
:1008300000000001FE3FFFFF80000000000000FFFD
:100840001E0FFF000000000000007FFE1FFC0000E4
:1008500000000000003FFFFFF80000000000000063
:100860000FDFFFE0000000000000001F19FFC000C4
:100870000000000000003F3CFF00000000000000FE
:10088000007E7CF800000000000000007FFE7C007D
:1008900000000000000000FFFFFC0000000000005E
:1008A0000000FFFFFE0000000000000000FFFFFE50
:1008B0000000000000000001FFEFFE00000000004B
:1008C000000001FFCFFE0000000000000003FF0752
:1008D000FE0000000000000003FC07FE0000000016
:1008E00000000003F003FE00000000000000018093
:1008F00000FE000000000000000000007E0000007C
:10090000000000000000003E0000000000000000A9
:1009100000000C000000000000078000FC00000345
:10092000C0000000078001FC000003C000000007B9
:100930008001FC000003C0000000078001E000000F
:10094000001E000000078001E00000001E007FE3A1
:10095000F79FF9FDE7787BDFC0FFF7FFBFFDFDFFE5
:10096000787BDFC0FFF7FFBFFDFDFF787BDFC0F0C6
:10097000F787BC3DE1FF787BDE00F0F787BC3DE107
:10098000F0787BDE0000F787803DE1E0787BDE00D9
:100990007FF7879FFDE1E0787BDE00FFF787BFFDF3
:1009A000E1E0787BDE00F0F787BC3DE1E0787BDEBC
:1009B00000F0F787BC3DE1E0787BDE00F0F787BC14
:1009C0003DE1E0787BDE00FFF7FFBFFDE1E07FFB6C
:1009D000DFC0FFF7FFBFFDE1E07FFBDFC07CF3F38B
:1009E0009F3DE1E03E7BCFC0000000000000000022
:1009F000000000FFFFFFFFFFFFFFFFFFFFC0FFFF43
:100A0000FFFFFD68DB111A31C0FFFFFFFFFD2B5A0E
:100A1000FB6AEFC0FFFFFFFFFD4B5B3B1A33C0FFDC
:100A2000FFFFFFFD6B5BDB6AFDC04F4C454420467A
:100A300065686C6572210000000000240027002A10
:100A4000000000000800020100000304070000008D
:100A500000000000002200FF21000000002300260B
:100A600000290000000000250028002B00040404D9
:100A70000404040404020202020202030303030347
:100A80000301020408102040800102040810200124
:100A9000020408102000761C262211241FBECFEF6E
:100AA000D8E0DEBFCDBF24E0A4EEB1E001C01D92CE
:100AB000A431B207E1F711E0A0E0B1E0E0EDF9E424
:100AC00002C005900D92A43EB107D9F715E0CCE421
:100AD000D5E004C02197FE010E94B522CB34D10796
:100AE000C9F70E94D31D0C94DB240C9400000895D8
:100AF00090E0FC01EF5BF54F2491FC01EF57F54FBF
:100B00003491FC01E359F54FE491EE23C9F022231F
:100B100039F0233001F1A8F4213019F1223029F104
:100B2000F0E0EE0FFF1FED59F54FA591B4918FB78F
:100B3000F894EC91611126C030953E233C938FBF11
:100B400008952730A9F02830C9F0243049F7809162
:100B500080008F7D03C0809180008F77809380001C
:100B6000DFCF84B58F7784BDDBCF84B58F7DFBCF9E
:100B70008091B0008F778093B000D2CF8091B00089
:100B80008F7DF9CF3E2BDACFCF93DF9390E0FC013E
:100B9000EF57F54F24918359954FFC018491882399
:100BA000D1F090E0880F991FFC01E95CF54FA59109
:100BB000B491FC01ED59F54FC591D49161110EC06E
:100BC0009FB7F8948C91E22FE0958E238C93288127
:100BD000E223E8839FBFDF91CF9108958FB7F89408
:100BE000EC91E22BEC938FBFF6CF3FB7F894809156
:100BF000E8029091E902A091EA02B091EB0226B5D9
:100C0000A89B05C02F3F19F00196A11DB11D3FBF44
:100C1000BA2FA92F982F8827BC01CD01620F711D13
:100C2000811D911D43E0660F771F881F991F4A950C
:100C3000D1F708958F929F92AF92BF92CF92DF9299
:100C4000EF92FF924B015C010E94F5056B017C0164
:100C50000E94F5056C197D098E099F09683E734055
:100C600081059105A8F321E0821A9108A108B10835
:100C700088EEC80E83E0D81EE11CF11C811491049B
:100C8000A104B10429F7FF90EF90DF90CF90BF90BF
:100C9000AF909F908F9008952FB7F8946091E402E1
:100CA0007091E5028091E6029091E7022FBF0895CE
:100CB000089508950895DB0114964D915C91159760
:100CC0006D917C91DC01ED91FC910280F381E02D2E
:100CD0000994AF92BF92CF92DF92EF92FF920F935F
:100CE0001F93CF93DF936C017B018B01040F151FC2
:100CF000EB015E01AE18BF08C017D10759F069912A
:100D0000D601ED91FC910190F081E02DC60109958D
:100D1000892B79F7C501DF91CF911F910F91FF903A
:100D2000EF90DF90CF90BF90AF900895FC01538D6E
:100D3000448D252F30E0842F90E0821B930B5417B5
:100D400010F0CF96089501970895FC01918D828D42
:100D5000981761F0A28DAE0FBF2FB11D5D968C91DB
:100D6000928D9F5F9F73928F90E008958FEF9FEF1A
:100D70000895FC01918D828D981731F0828DE80FD6
:100D8000F11D858D90E008958FEF9FEF0895FC0190
:100D9000918D228D892F90E0805C9F4F821B91095D
:100DA0008F739927089580EF92E00E94C70621E093
:100DB000892B09F420E0822F089580E090E0892BB0
:100DC00029F00E94D30681110C9400000895FC01C3
:100DD000A48DA80FB92FB11DA35ABF4F2C91848D9C
:100DE00090E001968F739927848FA689B7892C93F9
:100DF000A089B1898C91837080648C93938D848D4C
:100E0000981306C00288F389E02D80818F7D80834E
:100E10000895EF92FF920F931F93CF93DF93EC010E
:100E200081E0888F9B8D8C8D98131AC0E889F98991
:100E3000808185FF15C09FB7F894EE89FF89608394
:100E4000E889F98980818370806480839FBF81E015
:100E500090E0DF91CF911F910F91FF90EF90089557
:100E6000F62E0B8D10E00F5F1F4F0F731127E02E32
:100E70008C8D8E110CC00FB607FCFACFE889F9896A
:100E8000808185FFF5CFCE010E94E706F1CFEB8D83
:100E9000EC0FFD2FF11DE35AFF4FF0829FB7F8943E
:100EA0000B8FEA89FB8980818062CFCFCF93DF935C
:100EB000EC01888D8823B9F0AA89BB89E889F98972
:100EC0008C9185FD03C0808186FD0DC00FB607FCA7
:100ED000F7CF8C9185FFF2CF808185FFEDCFCE01DA
:100EE0000E94E706E9CFDF91CF910895EF92FF923C
:100EF0000F931F93CF93DF93EC01EC80FD806E1571
:100F00007F050CF070C057FF04C0240F351F50E060
:100F100040E08E819F81FA01E20FF31F8E179F0739
:100F20001CF49C01241B350B121613060CF05BC03D
:100F3000922F842F8695869586958E9DD0018F9DC4
:100F4000B00D11246A0F7B1FAF8DB8A1A60FB71F7C
:100F5000477049F188E0841B482F682F70E0FB013F
:100F6000E059FA4FE491281708F063C0621B710939
:100F70002FEF30E002C0359527956A95E2F7E2231E
:100F80000130110539F0B0F10230110561F58C9195
:100F9000E82702C08C91E82BEC93941720F12C8168
:100FA0003D81A20FB31FE92FE41BE83078F0023037
:100FB000110521F58E2F9C9190959C932C813D815C
:100FC000A20FB31F88508830B0F7E770EE2359F0B6
:100FD000F0E0E859FA4FE49101301105F9F010F111
:100FE0000230110519F1DF91CF911F910F91FF9000
:100FF000EF900895E0958C91E823CECF81E0011524
:10100000110509F480E081959E2F8C932C813D8100
:10101000A20FB31F98509830C0F7D7CF8C91E82B10
:10102000EC93E1CFE0958C91E823FACF8C91E827FF
:10103000F7CF0130110509F4ADCFE0F20230110510
:1010400009F4A5CFAE0DBF1DAECF0F931F93CF9365
:10105000DF9377FF04C0260F371F70E060E0DC01EC
:101060001496CD91DC91FB01E20FF31FCE17DF0741
:101070001CF49E01261B370B121613064CF5FA01C1
:1010800057FD3796A3E0F595E795AA95E1F7EC9F14
:10109000D001ED9FB00DFC9FB00D11246A0F7B1F96
:1010A000DC015F96ED91FC91E60FF71F4770552725
:1010B00081E090E001C0880F4A95EAF7482F01309F
:1010C000110559F0A8F02E0F3F1F02301105E1F075
:1010D000DF91CF911F910F9108952E0F3F1FE217BF
:1010E000F307B1F38191DF011197842B8C93F7CF34
:1010F00080952E0F3F1FE217F30751F39191DF0107
:10110000119798239C93F7CFE217F30709F3819186
:10111000DF01119784278C93F7CF0F931F93FA0168
:10112000DC0156964C9156974230E9F04330A1F1DC
:10113000413061F514964D915C91DA01AE1BBF0B05
:10114000FD01E21BF30B77FD0BC0DC0116964D9100
:101150005C916417750724F4AB01BF010E94250858
:101160001F910F91089514964D915C91DA01A61B81
:10117000B70BBD0161507109DC0116964D915C9170
:10118000DA01AE1BBF0BFD01E21BF30B77FDE8CFCD
:10119000AF010E947607E4CF16964D915C91DA017B
:1011A000A61BB70BBD0161507109CDCF0F931F93E3
:1011B000FA01DC0156964C9156974230A9F0433023
:1011C00091F1413019F514964D915C91DA01AE1B05
:1011D000BF0BFD013197F7FD04C0AB01BF010E94B9
:1011E00076071F910F91089514964D915C91DA0145
:1011F000A61BB70BBD01DC0116964D915C91DA017F
:10120000AE1BBF0BFD013197621B730BF7FDE9CFDE
:10121000DC0116964D915C91E417F50714F7AF01C8
:101220000E942508DECF16964D915C91DA01A61B2F
:10123000B70BBD01621B730BCECFFC0177FD64C001
:1012400080859185681779070CF05EC057FD5CC0FA
:1012500082859385481759070CF056C086898230DD
:10126000B1F0833029F1813041F484819581841B70
:10127000950BAB01BC01615071092130310509F1B9
:1012800008F443C02230310509F463C00895848115
:101290009581DC01A61BB70BBD01615071098681E8
:1012A0009781DC01A41BB50BAD0141505109E5CF7D
:1012B00086819781861B970BBA01AC014150510979
:1012C000DCCFCA0157FD0796A3E095958795AA95AF
:1012D000E1F7A481B5818A9F90018B9F300D9A9F81
:1012E000300D1124620F731F078CF0A1E02DE60F63
:1012F000F71F4770552721E030E001C0220F4A95C3
:10130000EAF78081822B80830895CA0157FD0796F2
:1013100033E0959587953A95E1F7A481B5818A9F49
:1013200090018B9F300D9A9F300D1124620F731F17
:10133000078CF0A1E02DE60FF71F4770552781E0DD
:1013400090E001C0880F4A95EAF780959081892343
:10135000DACFCA0157FD079623E0959587952A9520
:10136000E1F7A481B5818A9F90018B9F300D9A9FF0
:10137000300D1124620F731F078CF0A1E02DE60FD2
:10138000F71F4770552721E030E001C0220F4A9532
:10139000EAF780818227B7CF08958EBD00000DB493
:1013A00007FEFDCF8EB508958CBD9DBD08950895AF
:1013B000FC016370668B8481958126813781613061
:1013C00039F0633029F09187808733872287089529
:1013D000318720879387828708952F923F924F927B
:1013E0005F926F927F928F929F92AF92BF92CF92B5
:1013F000DF92EF92FF920F931F93CF93DF93CDB7BE
:10140000DEB76A970FB6F894DEBF0FBECDBF9A8FD6
:10141000898F7A8369834A01D22E18870F83370117
:10142000BC2CDC0159962D913C915A972115310520
:1014300009F015C118968D919C9119976817790735
:101440000CF0D7C11A968D919C91481759070CF052
:10145000D0C14C2C512CB6E0CB9E600D711D1124D7
:101460007C876B87161617060CF0C3C1EA2DF0E0D7
:10147000FA87E98793E0EE0FFF1F9A95E1F7F88B63
:10148000EF87CF01840F951F181619060CF0B1C114
:10149000A98DBA8D58968C91811104C0BFEABD15F3
:1014A00008F4D394A98DBA8DED91FC911197028423
:1014B000F385E02DCD010995B5E0DB9EC001112437
:1014C000E981FA81FC83EB83312C212C9C01285982
:1014D0003F4F388F2F8B4A2D50E05E8B4D8BEF891D
:1014E000F88DE20DF31D44919E828D82D12CC12C8A
:1014F00069817A81620D731D7A8B698B842F90E0EC
:101500009C8B8B8BE98DFA8DA081B18140FF82C0CD
:10151000F1E0BF126FC0AF126DC01C96ED91FC914F
:101520002F813885A4014C0D5D1D69897A89898DCB
:101530009A8D0995EB89FC89F595E7954E2F5FEF1C
:10154000C51AD50A6D817E818D899E89680F791FA4
:101550007E836D8398E0C916D10481F6AFEF2A1A15
:101560003A0AEB81FC81E40DF51DFC83EB83F5E089
:101570002F16310409F0B3CF2F8138852615370592
:10158000B9F0A98DBA8DED91FC91B1E0BB1257C0B5
:10159000AB1255C069817A816B5F7F4F0088F189FA
:1015A000E02D830128E030E0A401898D9A8D099512
:1015B000A98DBA8DED91FC9111970688F789E02DE0
:1015C000CD016A960FB6F894DEBF0FBECDBFDF9196
:1015D000CF911F910F91FF90EF90DF90CF90BF9030
:1015E000AF909F908F907F906F905F904F903F90C3
:1015F0002F9009941E96ED91FC91EF80F884098557
:101600001A8592014D815E816B817C81898D9A8DD5
:10161000099590CF2F8138852615370509F48ACF93
:1016200031E0B31207C0A31205C01C96ED91FC91E6
:10163000930178CF1E96ED91FC917301E0CF6B85FD
:101640007C85641975090684F785E02D73010F8583
:1016500018899201A401898D9A8D0995A9CFF90164
:1016600034969491329745915491D91AB7E0DB9E04
:10167000400D511D1124F901259134913C8B2B8B88
:10168000FA0125903490FA01329674903196349193
:10169000398B329664903196449041E04C1518F0A5
:1016A0004A1508F07FC0662D062C000C770B7C8352
:1016B0006B83842D042C000C990B9E838D83A98D44
:1016C000BA8DED91FC9111970284F385E02DCD0147
:1016D0000995512CD12CC12CEA2DF0E0FA87E9872D
:1016E0002B2D30E03C872B87A401440D511D47FC76
:1016F0005A95588F4F8B69817A81660D711D67FCF1
:101700007A957E876D877989C71608F051CF2C2D81
:1017100030E04D815E81420F531FA985BA854A9FF3
:10172000C0014B9F900D5A9F900D1124FC01E80DB4
:10173000F91DF88BEF87852D612C4F89588D420F4D
:10174000531F5E8B4D8B671408F050C044244394A4
:10175000480E877041F4C1010196EB89FC89E20DC6
:10176000F31DD4901C01D7FE19C0A98DBA8DED913F
:10177000FC91662D70E0B1E0BB1219C0AB1217C02E
:101780002D853E85620F731F0484F585E02D2F8122
:1017900038854D895E89898D9A8D0995DD0C639414
:1017A000842DD1CF1E821D821C821B8288CF4B814B
:1017B0005C81640F751FAB85BC856A9FC0016B9F00
:1017C000900D7A9F900D112469817A81680F791F9D
:1017D0000684F785E02DEF80F88409851A859D0140
:1017E0004F855889898D9A8D0995D8CF570CC39408
:1017F0008ACF6A960FB6F894DEBF0FBECDBFDF91D9
:10180000CF911F910F91FF90EF90DF90CF90BF90FD
:10181000AF909F908F907F906F905F904F903F9090
:101820002F9008958F929F92AF92CF92EF92FF9256
:101830000F931F93CF93DF93EC01262F898D9A8D01
:10184000009709F051C06A30D1F41D861C868D893D
:1018500048E0849F900111248E859F85820F931FFD
:101860009F878E8781E090E0DF91CF911F910F914C
:10187000FF90EF90CF90AF909F908F9008956D3034
:1018800089F3CC88AD888F898823C1F08C859D85AC
:1018900036E0C39E800D911D112448855985481757
:1018A000590764F44E855F851D861C8638E0A39E2B
:1018B000C0011124840F951F9F878E87EA88FB88BB
:1018C000088919894E855F856C857D85CE010E94CA
:1018D000ED092C898C859D8546E0249F800D911D06
:1018E00011249D878C87BECF6A3069F41D861C86C3
:1018F000FC013896E4912D898E859F85E29F800DAD
:10190000911D1124ADCF6D3009F4ACCFFC0134969C
:101910003491631708F4A6CF3296E491E61708F4E1
:10192000A1CFFC01329685909490462F431B342F13
:1019300047E0349F800C911C1124F40132963491BD
:101940003196E4913323A9F1EE2399F1CC88F40187
:101950003596E491AD884F89442301F10E2E000C99
:10196000FF0BE30FF11DCE9EA001CF9E500D112461
:101970006C857D85460F571F6885798564177507C7
:101980006CF44E855F851D861C86FC013896E491BB
:10199000AE9E400D511D11245F874E87EA88FB885B
:1019A000088919894E855F856C857D85CE010E94E9
:1019B000ED09F4013496E4912C898C859D85E29F94
:1019C000800D911D11248DCF6F927F928F929F92E7
:1019D000AF92BF92CF92DF92EF92FF920F931F933D
:1019E000CF93DF93EC016B015A0139014801E88183
:1019F000F9810284F385E02D0995E881F981028857
:101A0000F389E02D87019301A501B601CE01099567
:101A1000A501480D591D41505109E881F9810288FD
:101A2000F389E02D9301B601CE010995E881F98192
:101A30000088F189E02D9401A501B601CE01099538
:101A4000C60CD71CB60161507109E881F981008884
:101A5000F189E02D9401A501CE010995E881F98174
:101A60000688F789E02DCE01DF91CF911F910F916C
:101A7000FF90EF90DF90CF90BF90AF909F908F90AE
:101A80007F906F9009946F927F928F929F92AF9206
:101A9000BF92CF92DF92EF92FF920F931F93CF935B
:101AA000DF935C01EB016A01490138018701DC0128
:101AB000ED91FC916217730719F5641675062CF009
:101AC000962D872D3A01C92ED82E96012619370951
:101AD0002F5F3F4F048CF58DE02DA301BE01C501A2
:101AE0000995DF91CF911F910F91FF90EF90DF90BB
:101AF000CF90BF90AF909F908F907F906F90089500
:101B00004615570591F42617370724F0892D4B0108
:101B1000C22FD82F9E01281939092F5F3F4F068CFD
:101B2000F78DE02DA601B401DACF0284F385E02D14
:101B30000995D501ED91FC910488F589E02D83018B
:101B40009401A601BE01C5010995D501ED91FC9155
:101B50000688F789E02DC501DF91CF911F910F9184
:101B6000FF90EF90DF90CF90BF90AF909F908F90BD
:101B70007F906F900994EF92FF920F931F93DC0177
:101B80001A960D911C911B9718962D913C911997BF
:101B9000ED91FC9100A0F1A1E02D7B0150E040E02F
:101BA00070E060E009951F910F91FF90EF9008950C
:101BB0004F925F926F927F928F929F92AF92BF925D
:101BC000CF92DF92EF92FF920F931F93CF93DF9309
:101BD0006C012B015A0139014801DC01ED91FC91A6
:101BE0000284F385E02D0995E201640C751CD60191
:101BF000ED91FC91C615D7055CF40088F189E02DC4
:101C000087019401A501BE01C60109952196EFCF78
:101C10000688F789E02DC601DF91CF911F910F91C2
:101C2000FF90EF90DF90CF90BF90AF909F908F90FC
:101C30007F906F905F904F9009948F929F92AF9298
:101C4000BF92CF92DF92EF92FF920F931F93CF93A9
:101C5000DF93EC015B014A016901E881F9810284AB
:101C6000F385E02D099595012C0D3D1D215031097D
:101C7000E881F9810488F589E02D78018401A401C7
:101C8000B501CE010995E881F9810688F789E02D33
:101C9000CE01DF91CF911F910F91FF90EF90DF90D8
:101CA000CF90BF90AF909F908F9009948F929F920A
:101CB000AF92BF92CF92DF92EF92FF920F931F935A
:101CC000CF93DF93EC015B014A0169017801E88160
:101CD000F9810284F385E02D0995C80CD91C860191
:101CE00001501109E881F9810488F589E02D9501F9
:101CF000A401B501CE010995E881F9810688F7892B
:101D0000E02DCE01DF91CF911F910F91FF90EF90C9
:101D1000DF90CF90BF90AF909F908F900994EF92FB
:101D2000FF920F931F93DC01ED91FC9100A0F1A1B4
:101D3000E02D09951F910F91FF90EF9008950F935B
:101D40001F93DC01ED91FC91068CF78DE02D099538
:101D50001F910F9108950F931F93DC01ED91FC915A
:101D6000048CF58DE02D09951F910F910895DC01EC
:101D7000ED91FC910084F185E02D09943F924F9202
:101D80005F926F927F928F929F92AF92BF92CF920B
:101D9000DF92EF92FF920F931F93CF93DF935C013B
:101DA0007B014A016901390187E0680E711C93E0EB
:101DB000759467949A95E1F72B01400E511E10E03F
:101DC00000E0312CD0E0C0E0CE0187709927330CC1
:101DD000892B59F4FE0183E0F595E7958A95E1F7A3
:101DE000E00FF11FE80DF91D349037FE0AC021E025
:101DF00030E0A701B5016C0F7D1F81EB93E00E94DD
:101E0000B70E2196CC16DD06F9F68FEFE81AF80A20
:101E1000060D171DE414F504A9F6DF91CF911F916B
:101E20000F91FF90EF90DF90CF90BF90AF909F9079
:101E30008F907F906F905F904F903F9008952F927A
:101E40003F924F925F926F927F928F929F92AF924A
:101E5000BF92CF92DF92EF92FF920F931F93CF9397
:101E6000DF9300D000D000D0CDB7DEB73C016A01CF
:101E70003E832D83FC82EB825801A41AB50AB7FE7B
:101E800003C0B194A194B1088D809E80861A970AF0
:101E900097FE03C09194819491088A149B045CF08E
:101EA000902F812F0D811E819D838E839C2D8D2DE2
:101EB0006B01692F782F0C151D055CF09D818E81BB
:101EC0007E836D83692F782F902F812F8601C92EF5
:101ED000D82E1601201A310A2B012D813E81421A7B
:101EE000530A57FE03C0519441945108710137FEC3
:101EF00003C03FEFE31AF30AF594E7948D819E81C6
:101F0000861797075CF5A1E0B0E0BA83A983C016F5
:101F1000D1064CF1D301ED91FC910484F585E02DBF
:101F20002B813C81A8016D817E818A149B041CF069
:101F30004D815E81B801C3010995E418F508F7FEEB
:101F40000AC02D813E8189819A81280F391F3E83E5
:101F50002D83E20CF31C0F5F1F4FD9CF2FEF3FEF04
:101F60003A832983D4CF26960FB6F894DEBF0FBEEE
:101F7000CDBFDF91CF911F910F91FF90EF90DF9038
:101F8000CF90BF90AF909F908F907F906F905F9019
:101F90004F903F902F90089520918A02260F33276B
:101FA000331F21323105ECF42091AE02FC0190E0A8
:101FB00080E0243069F082E00895A0918A022191A6
:101FC000AC0146595D4FA40FB52FB11D2C9301965E
:101FD000861798F380918A02680F60938A0280E0E6
:101FE000089581E008951092AE0281E08093B002DE
:101FF0001092AF0261E082E10E94780561E083E126
:102000000E947805E9EBF0E080818E7F80838081FB
:102010008D7F808380E28093B80085E48093BC004C
:102020000895CF93DF9391E0909369028823B9F0EC
:10203000C091B800D091BA008091BC008A7B809397
:10204000BC0060E082E10E94780560E083E10E94CC
:1020500078050E94F30FD093BA00C093B800DF91C7
:10206000CF910895E091DE028091DD02E81730F40F
:10207000F0E0EC5BFD4F808190E008958FEF9FEFE3
:1020800008959091DE028091DD022FEF3FEF9817C7
:1020900048F4E92FF0E0EC5BFD4F208130E09F5FDA
:1020A0009093DE02C90108958091DD029091DE02D5
:1020B000891B990B0895CF92DF92EF92FF920F93B5
:1020C0001F93CF93DF937C01CB018A012091EF0214
:1020D000222389F0EB016B01C40ED51ECC15DD0562
:1020E00069F06991D701ED91FC910190F081E02DAB
:1020F000C7010995F3CF642F0E94CC0FC801DF916F
:10210000CF911F910F91FF90EF90DF90CF900895A6
:10211000CF93DF931F92CDB7DEB769832091EF0293
:102120002223F9F02091EC02203258F021E030E037
:10213000FC013383228390E080E00F90DF91CF9108
:1021400008958091ED02E82FF0E0EC5DFD4F99815C
:1021500090838F5F8093ED028093EC0281E090E0AA
:10216000ECCF61E0CE0101960E94CC0FF7CFCF9269
:10217000DF92EF92FF920F931F93CF93DF93D09153
:10218000EC0281E0D13208F09CC0C091EE020E94C6
:10219000F5056B017C018091AE0281116CC082E07B
:1021A0008093AE0281E08093B0028FEF8093AD0206
:1021B0001092D202D093D102A4E2B2E0E1EBF2E0BD
:1021C00080E0D8138DC01092D3028091D302CC0F3F
:1021D000C82BC093D3028091AF02813009F084C034
:1021E0001092AF020E94F5056B017C018091D30231
:1021F0008093BB008091650290916602A091670276
:10220000B0916802892B8A2B8B2BA1F00E94F505D7
:102210000091650210916602209167023091680278
:102220006C197D098E099F090617170728073907BA
:1022300008F442C08091BC0083FDD8CF85EC809328
:10224000BC000E94F5056B017C018091AE028230DA
:1022500009F44CC08091AD028F3F09F469C08091B0
:10226000AD02803209F466C08091AD02803309F47A
:1022700063C084E026C08091650290916602A091BF
:102280006702B0916802892B8A2B8B2B09F483CFCC
:102290000E94F50500916502109166022091670287
:1022A000309168026C197D098E099F09061717077E
:1022B0002807390708F06FCF809164020E9411103F
:1022C00085E01092ED021092EC021092EF02DF9185
:1022D000CF911F910F91FF90EF90DF90CF900895D5
:1022E0009D9191938F5F6DCF85EEA9CF809165020F
:1022F00090916602A0916702B0916802892B8A2BA7
:102300008B2B09F4A2CF0E94F50500916502109174
:10231000660220916702309168026C197D098E096E
:102320009F09061717072807390708F08ECFC4CF73
:1023300080E0C7CF82E0C5CF83E0C3CFEF92FF92AA
:102340000F931F93CF93DF937C01C62F8091CE0311
:102350009091CF03009709F459C02091D20331E046
:102360003093EF022093EE021092ED021092EC02F5
:10237000DC01ED91FC910190F081E02D60E0099588
:102380008701EE24E394F12CD1E0C1508091CE037B
:102390009091CF03CF3F91F1B0E2EB16F104D8F06A
:1023A0000E94B7108091CE039091CF032091D20369
:1023B000D093EF022093EE021092ED021092EC0205
:1023C000DC01ED91FC910190F081E02D60E0099538
:1023D000EE24E394F12C8091CE039091CF03F80189
:1023E0006491DC01ED91FC910190F081E02D099563
:1023F000BFEFEB1AFB0A0F5F1F4FC7CFDF91CF91E3
:102400001F910F91FF90EF900C94B710E091DE03B5
:10241000F091DF0390818091E4038095892380838C
:102420008701C15008F438C0F80184912091CC0391
:102430003091CD03232B29F00E94CD090F5F1F4F50
:10244000F0CF28E030E040E8E091DA03F091DB03E0
:102450009091E203582F5423D9F05081952B90830B
:10246000E091DC03F091DD0390815091E303952B23
:102470009083E091DC03F091DD0350819091E303C0
:10248000909595239083469521503109E9F6D6CF52
:10249000508190959523E3CFDF91CF911F910F91BC
:1024A000FF90EF9008951F93CF93DF93EC018D8DF4
:1024B0009E8D009721F1162F29A131E03093EF0274
:1024C0002093EE021092ED021092EC02DC01ED91ED
:1024D000FC910190F081E02D60E009958D8D9E8D3D
:1024E000DC01ED91FC910190F081E02D612F0995C7
:1024F0008D8D9E8DDF91CF911F910C94B710ADA55E
:10250000BEA59C918BA9809589238C938B8D9C8DE6
:10251000892B31F0862FDF91CF911F910C94CD093B
:1025200028E030E080E8A9A5BAA599A9462F48235C
:10253000C1F04C91942B9C93ABA5BCA59C914AA94E
:10254000942B9C93ABA5BCA54C919AA990959423F0
:102550009C9386952150310931F7DF91CF911F91DE
:1025600008954C9190959423E6CFDF92EF92FF92DD
:102570000F931F93CF93DF938091CE039091CF035E
:10258000892B09F4A5C02091E6033091E70340911F
:10259000E8035091E90360E072E18AE790E00E946D
:1025A0009322205131094109510956954795379594
:1025B00027952093B80064E085E59AE00E949E117B
:1025C0008091B5039091B6038034910509F097C0CE
:1025D00060E281EB93E00E9453126091B503615E6B
:1025E00081EB93E00E9453122091B7033091B8031E
:1025F000C901079697FD079633E0959587953A951B
:10260000E1F72091B5033091B603829F8001839F4B
:10261000100D929F100D1124C091D003D091D103C1
:102620008091CE039091CF030C0F1D1F009709F4EA
:1026300098C02091D20331E03093EF022093EE0254
:102640001092ED021092EC02DC01ED91FC910190F0
:10265000F081E02D60E40995EE24E394F12CDD2473
:10266000D3948091CE039091CF030C171D0709F4EA
:102670004FC0B0E2EB16F104D8F00E94B710809181
:10268000CE039091CF032091D203D092EF022093FA
:10269000EE021092ED021092EC02DC01ED91FC9141
:1026A0000190F081E02D60E40995EE24E394F12C93
:1026B0008091CE039091CF036991DC01ED91FC9163
:1026C0000190F081E02D0995BFEFEB1AFB0AC9CF0D
:1026D0008091CC039091CD03892B31F08091EF0351
:1026E0009091F0030E94D409E091E003F091E1039E
:1026F00090818091E5038095892380835CCF60E0A1
:1027000081EB93E00E9453126091B503615068CF52
:102710000E94B7108091CE039091CF03892B09F4CA
:1027200061C02091EA033091EB034091EC0350919A
:10273000ED0360E072E18AE790E00E94932220516D
:1027400031094109510956954795379527952093A9
:10275000B800DF91CF911F910F91FF90EF90DF9024
:102760000895E091DE03F091DF0380819091E4030E
:10277000892B80830C171D0769F289912091CC0366
:102780003091CD03232B19F00E94CD09F3CF28E01F
:1027900030E040E8E091DA03F091DB039091E2034E
:1027A000582F5423D9F05081952B9083E091DC036E
:1027B000F091DD0390815091E303952B9083E0919C
:1027C000DC03F091DD0350819091E3039095952314
:1027D0009083469521503109E9F6CCCF50819095F0
:1027E0009523E3CFE091E003F091E10380819091A4
:1027F000E503892B8083ADCF1F93CF93DF93EC014B
:10280000162F8D8D9E8D892BB1F12DA93EA94FA933
:1028100058AD60E072E18AE790E00E949322205177
:1028200031094109510956954795379527952093C8
:10283000B80066EA111167EACE010E9453128D8D2D
:102840009E8D892B41F129AD3AAD4BAD5CAD60E079
:1028500072E18AE790E00E949322205131094109F8
:10286000510956954795379527952093B800DF91E4
:10287000CF911F9108958B8D9C8D892B21F08EAD6A
:102880009FAD0E94D409EFA5F8A990818CA98095ED
:1028900089238083CECFEFA5F8A980819CA9892BBD
:1028A0008083E5CF2091D6023091D70228173907CF
:1028B00071F49091D4028091D502981741F0E09183
:1028C000D402F0E0EC51FE4F808190E008958FEF4C
:1028D0009FEF0895EF92FF920F931F93CF93DF9393
:1028E000DC015C96ED90FC905D97E114F10479F4C5
:1028F00081E090E013969C938E93129790E080E095
:10290000DF91CF911F910F91FF90EF900895519615
:10291000ED91FC91529750968C915097982F9095ED
:102920000FB75E962C915E97122F127021FD609565
:10293000F8942081112319F1282B2083E701219796
:10294000F1F728E0462F50E0308160FF1AC0382BA5
:102950003083E7012197F1F7BA017595679521500A
:1029600089F7112381F08081892380830FBF5C96D2
:102970008D919C910197F1F781E090E0C1CF2923DF
:10298000DCCF3923E5CF9081892BEFCF2091D60280
:102990003091D7022817390761F48091D502209130
:1029A000D40290E0805C9F4F821B91098F7399271E
:1029B000089590E080E008952091D6023091D702EA
:1029C00028173907B9F49091D4028091D50298174D
:1029D00089F0E091D402F0E0EC51FE4F808120912B
:1029E000D40230E02F5F3F4F2F7333272093D40260
:1029F00090E008958FEF9FEF08950F931F930E942B
:102A00004C066093F9037093FA038093FB03909351
:102A1000FC0381EF93E00E94DC1497FF1DC00E942D
:102A20004C060091F9031091FA032091FB033091B9
:102A3000FC03601B710B820B930B0091F50310914B
:102A4000F6032091F7033091F803601771078207AE
:102A50009307F8F28FEF9FEF1F910F91089590E089
:102A600080E00895CF93DF93EC0160E08E810E94B7
:102A7000780561E08E810E94780560E08E810E9479
:102A8000780584EC90E00197F1F7DF91CF910895FC
:102A9000CF92DF92EF92FF920F931F93CF93DF932A
:102AA0006C017C0187E0E80EF11CD0E0C0E0062F4D
:102AB00010E0B8010C2E02C0759567950A94E2F7F4
:102AC0006170F70181917F010E9478052196C430E1
:102AD000D10579F7C601DF91CF911F910F91FF903A
:102AE000EF90DF90CF900C943215CF92DF92EF925F
:102AF000FF920F931F93CF93DF93EC01F62E642F79
:102B00008C810E9478058D818F3F19F060E00E94D2
:102B100078050F2D10E08F8584FF25C06E0187E0BA
:102B2000C80ED11CF12CE12CB8010E2C02C07595F9
:102B300067950A94E2F76170F60181916F010E9436
:102B40007805FFEFEF1AFF0A88E0E816F10461F755
:102B5000CE01DF91CF911F910F91FF90EF90DF9009
:102B6000CF900C943215B80184E0759567958A95DD
:102B7000E1F7CE010E9448156F2DCE01DF91CF9174
:102B80001F910F91FF90EF90DF90CF900C9448151C
:102B900040E0682F8DE893E00C94751581E00E9469
:102BA000C8158CE99FE00197F1F70895CF93DF9363
:102BB000623029F490919C03986090939C036093F9
:102BC000A0031092A10390E49093A2038093A30327
:102BD000805C8093A40361E0809191030E94C4050E
:102BE000809192038F3F19F061E00E94C40561E07B
:102BF000809193030E94C405CDE8D3E09E012D5837
:102C0000334080919C0384FD0BC084E090E02196CA
:102C10002817390744F461E08E810E94C405EECF85
:102C200088E090E0F4CF8CE996E80197F1F760E056
:102C3000809191030E94780560E0809193030E9447
:102C40007805809192038F3F19F060E00E9478052B
:102C500080919C0384FD34C063E08DE893E00E9482
:102C60004815C4E2D3E2CE010197F1F763E08DE8A5
:102C700093E00E9448152197F1F763E08DE893E017
:102C80000E94481588E291E00197F1F762E08DE833
:102C900093E00E94481580919C0380620E94C815B1
:102CA00084E080939D038CE00E94C8150E94CE159D
:102CB00082E080939E0386E0DF91CF910C94C8154B
:102CC00080620E94C81584E293E20197F1F7809137
:102CD0009C0380620E94C81588E291E00197F1F799
:102CE00080919C0380620E94C815D5CF41E00E946C
:102CF000751581E090E008952091B7033091B803F5
:102D0000C901079697FD079623E0959587952A9523
:102D1000E1F72091B5033091B603829FA001839F14
:102D2000500D929F500D112470E060E08091D0030F
:102D30009091D1030C94AB240E949D24FB0101903F
:102D40000020E9F73197AF01461B570BDC01ED91ED
:102D5000FC910280F381E02D09940F931F93CF9390
:102D6000DF93EC010E945B068C0164E771E0CE0109
:102D70000E949E16800F911FDF91CF911F910F919E
:102D800008950F931F93CF93DF93EC01888199816E
:102D9000009759F02A813B812617370730F081E0F0
:102DA000DF91CF911F910F9108958B016F5F7F4F3E
:102DB0000E94E023009759F0998388831B830A833C
:102DC0002C813D81232B59F7FC011082E8CF80E054
:102DD000E7CFEF92FF920F931F93CF93DF9361158D
:102DE000710541F480E0DF91CF911F910F91FF9029
:102DF000EF90089541155105B1F07B01EC010C8174
:102E00001D81040F151FB8010E94C116882351F3BC
:102E1000288139818C819D81B701820F931F0E9487
:102E2000C6241D830C8381E0DECFCF93DF93EC01BA
:102E300088819981009711F00E9457231982188286
:102E40001D821C821B821A82DF91CF910895EF921E
:102E5000FF920F931F93CF93DF93EC017B018A01C5
:102E6000BA010E94C11681110BC0CE010E94151734
:102E7000CE01DF91CF911F910F91FF90EF900895B8
:102E80001D830C83B701888199810E94C624F0CFED
:102E9000FC01118210821382128215821482FB01BE
:102EA00001900020E9F73197AF01461B570B0C94B6
:102EB0002717AF92BF92CF92DF92EF92FF920F93BC
:102EC0001F93CF93DF937C016B015A018901241773
:102ED000350720F48B2D5901042F182F66E771E078
:102EE000C7010E944817D6011496CD91DC91AC160B
:102EF000BD0620F50C171D0708F4E801D601ED9179
:102F0000FC911197EC0FFD1F108110826D917C9147
:102F10006A0D7B1D61157105E9F0FB010190002030
:102F2000E9F73197AF01461B570BC7010E942717DE
:102F3000F60180819181C80FD91F1883C701DF91E5
:102F4000CF911F910F91FF90EF90DF90CF90BF90A6
:102F5000AF900895C7010E941517EACFFC01808148
:102F60009181009711F00C94572308950F931F93AC
:102F7000CF93DF9300D000D000D0CDB7DEB78C0167
:102F8000BC0181EF93E00E94AD1667E771E0CE01CE
:102F900001960E944817F801448155816081718132
:102FA000CE0101960E94E916811104C0CE0101965E
:102FB0000E941517BE016F5F7F4F80EF92E00E9465
:102FC000AD16CE0101960E94AE1726960FB6F89464
:102FD000DEBF0FBECDBFDF91CF911F910F9108953E
:102FE00085ED8093BC008091650290916602A0916E
:102FF0006702B09168020796A11DB11D23E0B69546
:10300000A795979587952A95D1F72091BC0024FD27
:1030100003C01092AE02089540916502509166027D
:103020006091670270916802452B462B472B69F32C
:103030000097A105B10541F025E12A95F1F70000BF
:103040000197A109B109E1CF809164020C9411109C
:10305000AF92BF92CF92DF92EF92FF920F931F93A6
:10306000CF93DF93CDB7DEB76E970FB6F894DEBF80
:103070000FBECDBF0E944C066B017C010E944C0626
:103080006C197D098E099F09683B7B40810591057C
:1030900008F024C181EF93E00E94C614892B71F3DC
:1030A00066E771E0CE0149960E9448170E94FD1420
:1030B00097FD1EC08A309105D9F089831A820D8D43
:1030C0001E8D0F5F1F4FB801CE0149960E94C11699
:1030D000882361F3298D3A8D8D8D9E8DBE016F5FA2
:1030E0007F4F820F931F0E94C6241E8F0D8FDECF4D
:1030F000C98CDA8CC114D10439F00D8D1E8D760186
:103100000115110509F0FCC069E871E0CE010196D6
:103110000E9448174D8D5E8D698D7A8DCE01019686
:103120000E94E916811104C0CE0101960E94151774
:10313000BE016F5F7F4F80EF92E00E94AD16CE011F
:1031400001960E94AE1765E971E0CE0101960E94DA
:1031500048174D815E818D8D9E8D8417950770F087
:10316000898D9A8D009751F069817A816115710579
:1031700029F00E94CD2411E0892B09F010E0CE0146
:1031800001960E94AE17112309F4A4C0ED8CFE8CA9
:10319000E114F10409F4EAC0098D1A8D6CE770E0BE
:1031A000C8010E94B224009709F4E0C09C01201BD2
:1031B000310B89010F5F1F4F0E151F0508F08AC0E4
:1031C000E98CFA8C6CE770E0C701800F911F0E94B8
:1031D000B224009709F47EC0FC01EE19FF097F01BB
:1031E000FFEFEF16FF0609F475C09701A801BE01B5
:1031F000675E7F4FCE0143960E9459172D8D3E8DFD
:10320000A7014F5F5F4FBE01675E7F4FCE010D96F6
:103210000E9459178F89988D892B09F453C00B8907
:103220001C896AE971E0C8010E94BD24892B41F024
:103230006DE971E0C8010E94BD24892B09F099C095
:103240001A8219821C821B821E821D826D857E85D8
:103250006115710531F049895A89CE0101960E94A4
:1032600027170E947C1681E08093C5038093C603D4
:103270001092BE031092BD031092C0031092BF03C0
:1032800062EA71E081EB93E00E949E1682E08093F7
:10329000C5038093C6031092BE031092BD0389E15B
:1032A00090E09093C0038093BF03BE016F5F7F4F98
:1032B00081EB93E00E945B060E94B512CE0101965D
:1032C0000E94AE17CE010D960E94AE17CE01439616
:1032D0000E94AE17CE0149960E94AE176E960FB6A9
:1032E000F894DEBF0FBECDBFDF91CF911F910F913C
:1032F000FF90EF90DF90CF90BF90AF900895750151
:1033000057013FEFA31AB30AF7018081082E000C82
:10331000990B0E945022892B91F7015011090C0D35
:103320001D1DF8018081082E000C990B0E9450226F
:10333000892B31F00E151F0518F001501109F1CF3E
:10334000A8014F5F5F4F4E195F095E8F4D8FCE14FE
:10335000DF0420F4B701C6010E94A224E98DFA8D92
:103360008D8D9E8DE80FF91F1082CECE0FEF1FEFCF
:1033700021CF6BEA71E0C8010E94BD24892B09F0BE
:10338000A1CF18861F821A8619861C861B866D851A
:103390007E856115710531F049895A89CE010796FC
:1033A0000E9427170E94CE15E1E08091A0038111B1
:1033B000E0E0E195F0E0E357FC4F848980680E94EB
:1033C000C81565EB71E08DE893E00E949E16E091D0
:1033D000A003E230E8F5E150F0E0E357FC4F8489C8
:1033E00080680E94C8158B859C85899738F128E2F2
:1033F00030E050E040E0BE01695F7F4FCE010196B2
:103400000E9459178F819885009731F169817A81DF
:1034100061157105F9F049855A852D813E81421764
:103420005307C0F00E94C6248D819E819C878B87A4
:103430001E821D82CE0101960E94AE17BE01695FF9
:103440007F4F8DE893E00E945B06CE01079638CF50
:10345000E1E0C2CF0E94572389819A8198878F83A8
:103460008B819C819A8789878D819E819C878B87A0
:103470001A8219821C821B82DBCF1F920F920FB619
:103480000F9211242F933F938F939F93AF93BF93EA
:103490008091E4029091E502A091E602B091E702EA
:1034A0003091E30226E0230F2D3758F50296A11D37
:1034B000B11D2093E3028093E4029093E502A09370
:1034C000E602B093E7028091E8029091E902A091B0
:1034D000EA02B091EB020196A11DB11D8093E802B2
:1034E0009093E902A093EA02B093EB02BF91AF91EF
:1034F0009F918F913F912F910F900FBE0F901F9032
:10350000189529E8230F0396A11DB11DD2CF1F9254
:103510000F920FB60F9211242F933F934F935F9307
:103520006F937F938F939F93AF93BF93EF93FF938B
:1035300080EF92E00E94E706FF91EF91BF91AF917B
:103540009F918F917F916F915F914F913F912F91BB
:103550000F900FBE0F901F9018951F920F920FB6ED
:103560000F9211242F938F939F93EF93FF93E091EA
:103570000003F09101038081E0910603F0910703BD
:1035800082FD1BC09081809109038F5F8F73209112
:103590000A03821741F0E0910903F0E0E051FD4F8A
:1035A000958F80930903FF91EF919F918F912F91B8
:1035B0000F900FBE0F901F9018958081F4CF1F922F
:1035C0000F920FB60F9211242F933F934F935F9357
:1035D0006F937F938F939F93AF93BF93EF93FF93DB
:1035E0008091B900887F803609F44AC0F0F58832AE
:1035F00009F4A7C018F5803109F49BC0B8F48823FA
:1036000009F4F9C0883009F494C0FF91EF91BF919B
:10361000AF919F918F917F916F915F914F913F916A
:103620002F910F900FBE0F901F901895883109F4BD
:1036300088C0803251F78093AD0214C0803409F401
:103640009DC040F48033B9F38833F9F68093AD021E
:1036500085ECB0C0803509F485C0883509F496C082
:10366000883499F60E94F017D0CF883909F48CC0BD
:1036700038F5883729F050F4883611F0803729F66C
:1036800083E08093AE021092AC0257C0883809F4F0
:103690007BC0803919F0803809F0B7CF8091AC0237
:1036A000803208F071C0E091AC0281E08E0F80930F
:1036B000AC028091BB00F0E0E457FD4F80833DC039
:1036C000803B39F0E0F4803A09F479C0883A09F097
:1036D0009CCF84E08093AE0210928B0210928A02FB
:1036E000E091DB02F091DC02099580918A02811160
:1036F0000FC081E080938A0210926A0209C0803C68
:1037000009F4A6CF883C09F4A3CF883B09F07DCF0C
:10371000E0918B0281E08E0F80938B02F0E0E659FE
:10372000FD4F80818093BB0090918B0280918A0233
:1037300029C08091D3028093BB0085EC8093BC00AC
:1037400064CF9091D2028091D102981758F5E09100
:10375000D20281E08E0F8093D202F0E0EF54FD4F51
:103760008081E9CFE091D20281E08E0F8093D20276
:103770008091BB00F0E0EF54FD4F80839091D20226
:103780008091D1029817C8F285E8D8CFE091D20293
:1037900081E08E0F8093D2028091BB00F0E0EF5465
:1037A000FD4F80838091B00281115CCF81E08093D6
:1037B000AF0284EA8093BC001092AE0226CF85EC63
:1037C0008093BC001092AE028091AC02803230F443
:1037D000E091AC02F0E0E457FD4F10826091AC0242
:1037E00070E0E091D902F091DA028CE892E009955C
:1037F0001092AC020ACF1092AD0234CF1F920F92FA
:103800000FB60F9211242F933F934F935F936F93B3
:103810007F938F939F93AF93BF93EF93FF93E09129
:10382000D602F091D702309749F0A685B7858585F5
:10383000968D91FF14C09C918923A1F4FF91EF9183
:10384000BF91AF919F918F917F916F915F914F91B8
:103850003F912F910F900FBE0F901F9018959C9144
:10386000892361F7A389B4899C91858980958923EF
:103870008C93868997890197F1F7608D718DA68564
:10388000B785558538E020E0CB010197F1F7822F0D
:1038900090E095958795282F4C91452309F0206855
:1038A000315091F7868D81FD20958091D50290E071
:1038B00001968F7399273091D402381799F0A0910F
:1038C000D502B0E0AC51BE4F2C938093D502828DCF
:1038D000938D0197F1F7A389B4898C919589892BF0
:1038E0008C93ACCF868D8160868FF1CF1092F302DE
:1038F0001092F20288EE93E0A0E0B0E08093F40230
:103900009093F502A093F602B093F7022AE031E01B
:103910003093F1022093F00225EC30E03093FD0269
:103920002093FC0224EC30E03093FF022093FE024F
:1039300020EC30E0309301032093000321EC30E0D1
:10394000309303032093020322EC30E0309305030D
:103950002093040326EC30E0309307032093060302
:103960001092090310920A0310920B0310920C0399
:103970001092A8031092A7038093A9039093AA031F
:10398000A093AB03B093AC032CE131E03093A603DA
:103990002093A5031092F4031092F3038093F50390
:1039A0009093F603A093F703B093F80386E691E0B3
:1039B0009093F2038093F10310920804109207048D
:1039C00010920A041092090410920C0410920B0435
:1039D00010920E0410920D0460910F046E7F6D7FA3
:1039E00060930F046695617081E0682783E00E9410
:1039F000780561E083E00E94C405E4E8FAE0E49120
:103A0000E0930104E0E7FAE0E491F0E0EE0FFF1F3D
:103A1000ED59F54F8591949190930304809302049E
:103A200060E082E00E94C40580910F0481FD04C023
:103A300061E082E00E94780582E08093FD03E3E884
:103A4000FAE0E491E093FE03EFE6FAE0E491F0E0BF
:103A5000EE0FFF1FE75AF54F859194919093000464
:103A60008093FF031092B4031092B30320E830E078
:103A70003093B6032093B50380E490E09093B803AD
:103A80008093B7033093BA032093B9039093BC0398
:103A90008093BB031092C7031092BE031092BD0324
:103AA0001092C0031092BF0391E09093C6039093CD
:103AB000C5032FEF3FEF3093C4032093C30330932C
:103AC000C2032093C1039093C8031092C9031092BC
:103AD000CB031092CA032AE331E03093B203209360
:103AE000B1031092CD031092CC0325EA33E030935A
:103AF000CF032093CE031092D1031092D0038FEF07
:103B00008093D5038093D6038093D7038093D80303
:103B10008093D90340E85AE166E070E04093E60301
:103B20005093E7036093E8037093E90340EA56E893
:103B300061E070E04093EA035093EB036093EC0381
:103B40007093ED0320E52093EF039093F003109220
:103B5000900310928F032EE231E030938E03209376
:103B60008D039AE0909391038093920389E0809370
:103B700093038BE0809394038CE0809395038DE016
:103B8000809396038EE0809397031092980310928F
:103B9000990310929A0310929B0310929C0361E088
:103BA00080E10C94D615CF93DF9300D000D000D0E5
:103BB000CDB7DEB7789484B5826084BD84B581606A
:103BC00084BD85B5826085BD85B5816085BD8091E8
:103BD0006E00816080936E00109281008091810060
:103BE0008260809381008091810081608093810058
:103BF000809180008160809380008091B10084601A
:103C00008093B1008091B00081608093B00080917A
:103C10007A00846080937A0080917A008260809339
:103C20007A0080917A008E7F80937A0080917A006A
:103C3000806880937A001092C100E0910003F091B7
:103C4000010382E08083E091FC02F091FD0210828A
:103C5000E091FE02F091FF0280E180831092080360
:103C6000E0910403F091050386E08083E091020374
:103C7000F0910303808180618083E0910203F091E1
:103C80000303808188608083E0910203F091030345
:103C9000808180688083E0910203F091030380813A
:103CA0008F7D808310920C0410920B0410920A04F2
:103CB0001092090410920804109207048FE190E01A
:103CC00090930E0480930D049091FD03963108F0BB
:103CD00047C021E030E030930804209307042DE131
:103CE00030E030930A04209309042DE030E0309353
:103CF0000C0420930B042091680084E0983048F075
:103D000031E09E3008F430E081E001C0880F3A9540
:103D1000EAF7822B809368002DE630E0983050F06F
:103D20002BE630E09E3030F02CE630E0963110F09B
:103D300030E020E03093050420930404292F30E084
:103D4000983008F085C081E001C0880F9A95EAF7A5
:103D50008093060480910D0490910E040197F1F771
:103D600080910B0490910C04892B49F1E091D602CB
:103D7000F091D70223E0E13FF20709F1309739F0E3
:103D8000A389B4899C918589809589238C9380919E
:103D90000F048E7F80930F041092D5021092D402EC
:103DA00081EF93E09093D7028093D602E0910404D0
:103DB000F0910504808190910604892B808361E055
:103DC0008FE00E94C40561E08FE00E94780562E008
:103DD00088E20E94D6150E94CE15E1E08091A003F2
:103DE0008111E0E0E195F0E0E357FC4F84898068C1
:103DF0000E94C81560EC71E08DE893E00E949E1669
:103E00008091D0039091D103892B79F10E947C1687
:103E10002091B7033091B8038091B5039091B60318
:103E2000213231050CF058C0B9016052710977FF99
:103E300002C06F5F7F4F759567958357910997FD16
:103E4000019600E210E023E730E04AE855E057C071
:103E50009E3040F42850310981E001C0880F2A9536
:103E6000EAF776CF2E503109F7CF2091B703309182
:103E7000B803C901079697FD0796B3E09595879516
:103E8000BA95E1F72091B5033091B603AC01429F9A
:103E9000C001439F900D529F900D11240E94BB22A0
:103EA0009093D1038093D003892B09F0AFCF0AE21E
:103EB0001AE0F8016491662341F080EF92E00E94DD
:103EC00009070F5F1F4F892BA1F764E771E080EFAF
:103ED00092E00E949E16FFCFB9016054710977FFEE
:103EE00002C06F5F7F4F759567958255910997FD69
:103EF000019600E410E022E530E04AE657E09595AF
:103F000087950E94BE0E82E08093D3038091CE03FA
:103F10009091CF03892B09F494C18CE38093D20351
:103F20001092DE021092DD021092ED021092EC026D
:103F30000E94F30F88E596E09093DC028093DB0209
:103F400089E596E09093DA028093D9028091D903B3
:103F500087FD1EC061E00E94C40561E08091D90325
:103F60000E94780561E070E080E090E00E941A060F
:103F700060E08091D9030E9478056AE070E080E0FB
:103F800090E00E941A0661E08091D9030E947805B2
:103F90008091CE039091CF03892B09F411C2209117
:103FA000E6033091E7034091E8035091E90360E0B4
:103FB00072E18AE790E00E94932220513109410981
:103FC000510956954795379527952093B80064E099
:103FD00086E895E00E949E116091B703615081EBE5
:103FE00093E00E94531264E082E895E00E949E11E3
:103FF0008091D30360E1813009F064E181EB93E0CB
:104000000E94531264E08EE795E00E949E118FE8B3
:104010008093EE038091B5039091B60380389105AB
:1040200009F0E5C18091B7039091B8038034910500
:1040300009F0EDC18091D303813009F0FBC18FE914
:104040008093EE0312E16AED81EB93E00E9453123C
:10405000612F81EB93E00E94531261E881EB93E0C2
:104060000E9453126091EE0381EB93E00E94531281
:1040700069ED81EB93E00E9453128091D30362E2D9
:10408000813009F061EF81EB93E00E94531266E00A
:1040900088E795E00E949E118091CE039091CF0316
:1040A000892B09F4C9C12091EA033091EB034091B7
:1040B000EC035091ED0360E072E18AE790E00E942A
:1040C0009322205131094109510956954795379559
:1040D00027952093B8000E947C1682E08093C50348
:1040E0008093C60381E090E09093C4038093C30360
:1040F0009093C2038093C1031092BE031092BD033C
:104100008AE090E09093C0038093BF0362ED71E07A
:1041100081EB93E00E949E160E94B51260ED77E05D
:1041200080E090E00E941A066DED71E0CE010196EC
:104130000E944817CE0101960E94B617CE01019643
:104140000E94AE1760EA7FE080E090E00E941A06CD
:104150006AE971E0CE0101960E944817CE010196EE
:104160000E94B617CE0101960E94AE170E94281831
:104170006BEA71E0CE0101960E944817CE010196CC
:104180000E94B617CE0101960E94AE170E94281811
:1041900000E010E00E944C06C090DF02D090E002E8
:1041A000E090E102F090E2026C197D098E099F090E
:1041B00060367A4E8105910580F10E944C0660932D
:1041C000DF027093E0028093E1029093E2026AE9D9
:1041D00071E0CE0101960E944817CE0101960E941F
:1041E000B617CE0101960E94AE170E94281868EEFD
:1041F00073E080E090E00E941A066BEA71E0CE0165
:1042000001960E944817CE0101960E94B617CE0172
:1042100001960E94AE170E94281881EF93E00E9439
:10422000C614892B11F00E9428180115110509F4F4
:10423000B1CF0E94D306882309F4ACCF0E940000BE
:10424000A9CF61E08091D7030E94C40561E080910D
:10425000D8030E94C4058091D703082E000C990B47
:10426000FC01E359F54FE491F0E0EE0FFF1FED592B
:10427000F54F259134913093DF032093DE03FC0149
:10428000EF57F54FE491E093E4038091D803082EB3
:10429000000C990BFC01E359F54FE491F0E0EE0FAF
:1042A000FF1FED59F54FA591B491B093E103A09391
:1042B000E003FC01EF57F54FE491E093E5038C91A7
:1042C000E82BEC938091CC039091CD03892B09F4DA
:1042D00034C01FB7F8948091D802811127C0E7E756
:1042E000FAE08491EBE8FAE09491E82FF0E0EE0F29
:1042F000FF1FE95CF54FA591B491EC91E92321F4FE
:1043000061E08AE00E94780561E08AE00E94C405CD
:104310008CB580618CBD8CB580648CBD61E08DE016
:104320000E94C40561E08BE00E94C4058091D80220
:104330008F5F8093D8021FBF09CE61E08091D503C3
:104340000E94C40561E08091D6030E94C40580915B
:10435000D503082E000C990BFC01E359F54FE491AD
:10436000F0E0EE0FFF1FED59F54F2591349130939A
:10437000DB032093DA03FC01EF57F54FE491E09360
:10438000E2038091D603082E000C990BFC01E3593F
:10439000F54FE491F0E0EE0FFF1FED59F54FA591B9
:1043A000B491B093DD03A093DC03FC01EF57F54F0C
:1043B000E491E093E3038C91E095E823EC93C6CD80
:1043C0008091CC039091CD03892B31F08091EF0344
:1043D0009091F0030E94D409E091E003F091E10391
:1043E00090818091E503809589238083F0CD80368C
:1043F000910589F48091B7039091B803409739F4FF
:104400008091D303813029F480E18093EE0312E0A0
:104410001ACE8FEAFACF80349105C9F78091B7039D
:104420009091B803809799F78091D303813011F46C
:1044300080E106CE8FEC04CEE091E003F091E10341
:1044400080819091E503892B808345CE8AE391E0BA
:104450009093B2038093B1038091D0039091D103E4
:10446000009711F00E94572386E691E09093F203A3
:104470008093F1038091D6029091D702815F93409F
:1044800071F4E0910404F091050490818091060498
:104490008095892380831092D7021092D6020895C6
:1044A00091110C945922803219F089508550C8F727
:1044B00008959927882708952F923F924F925F92EF
:1044C0006F927F928F929F92AF92BF92CF92DF9224
:1044D000EF92FF920F931F93CF93DF93CDB7DEB789
:1044E000CA1BDB0B0FB6F894DEBF0FBECDBF09941D
:1044F0002A88398848885F846E847D848C849B8474
:10450000AA84B984C884DF80EE80FD800C811B8181
:10451000AA81B981CE0FD11D0FB6F894DEBF0FBEB0
:10452000CDBFED010895A1E21A2EAA1BBB1BFD0110
:104530000DC0AA1FBB1FEE1FFF1FA217B307E40782
:10454000F50720F0A21BB30BE40BF50B661F771FDA
:10455000881F991F1A9469F76095709580959095BA
:104560009B01AC01BD01CF010895EE0FFF1F059027
:10457000F491E02D09940F931F93CF93DF93823032
:10458000910510F482E090E0E0911204F0911304A0
:1045900030E020E0B0E0A0E0309799F4211531053B
:1045A00009F44AC0281B390B24303105D8F58A811B
:1045B0009B816115710589F1FB0193838283FE0163
:1045C00011C0408151810281138148175907E0F0E1
:1045D0004817590799F4109761F012960C931297A7
:1045E00013961C933296CF01DF91CF911F910F91BB
:1045F00008950093120410931304F4CF211531058C
:1046000051F04217530738F0A901DB019A01BD01AF
:10461000DF01F801C1CFEF01F9CF9093130480932C
:104620001204CDCFFE01E20FF31F8193919322502C
:10463000310939832883D7CF209110043091110498
:10464000232B41F420910201309103013093110496
:1046500020931004209100013091010121153105B2
:1046600041F42DB73EB74091040150910501241B40
:10467000350BE0911004F0911104E217F307A0F458
:104680002E1B3F0B2817390778F0AC014E5F5F4FA8
:104690002417350748F04E0F5F1F509311044093C5
:1046A0001004819391939FCFF0E0E0E09CCFCF93F3
:1046B000DF930097E9F0FC01329713821282A091F8
:1046C0001204B0911304ED0130E020E01097A1F442
:1046D00020813181820F931F2091100430911104A9
:1046E0002817390709F061C0F0931104E093100412
:1046F000DF91CF910895EA01CE17DF07E8F54A81EF
:104700005B819E0141155105B1F7E901FB83EA8305
:1047100049915991C40FD51FEC17FD0761F48081B1
:1047200091810296840F951FE90199838883828184
:1047300093819B838A83F0E0E0E012968D919C91B7
:1047400013970097B9F52D913C911197CD010296E1
:10475000820F931F209110043091110428173907FC
:1047600039F6309751F51092130410921204B09359
:104770001104A0931004BCCFD383C2834081518124
:10478000840F951FC817D90761F44E5F5F4F88816A
:104790009981480F591F518340838A819B8193835C
:1047A00082832115310509F0B0CFF0931304E09313
:1047B00012049ECFFD01DC01C0CF13821282D7CF3D
:1047C000B0E0A0E0E6EEF3E20C945E228C010097EC
:1047D00051F4CB010E94BB228C01C801CDB7DEB7DA
:1047E000E0E10C947A22FC01E60FF71F9C012250B5
:1047F0003109E217F30708F49DC0D901CD91DC918E
:104800001197C617D70798F0C530D10530F3CE0100
:1048100004978617970708F3C61BD70B2297C193F7
:10482000D1936D937C93CF010E945723D6CF5B0128
:10483000AC1ABD0A4C018C0E9D1EA0911204B091C1
:104840001304512C412CF12CE12C109731F580915F
:104850001004909111048815990509F05CC0461662
:10486000570608F058C0809100019091010100970F
:1048700041F48DB79EB74091040150910501841B0E
:10488000950BE817F90708F055C0F0931104E09371
:104890001004F90171836083A0CF8D919C911197D1
:1048A00012966C90129713967C901397A815B905E1
:1048B00059F56C0142E0C40ED11CCA14DB0420F18E
:1048C000AC014A195B09DA011296159780F06282F1
:1048D000738251834083D9016D937C93E114F10479
:1048E00071F0D7011396FC93EE93129776CF229630
:1048F0008C0F9D1FF90191838083F301EFCFF0931B
:104900001304E093120469CF4816590608F42C01E9
:104910007D01D3019ACFCB010E94BB227C0100977D
:1049200049F0AE01B8010E94A224C8010E94572399
:10493000870153CF10E000E050CF81E090E0F89481
:104940000C94DB24FB01DC0102C001900D9241506C
:104950005040D8F70895DC0101C06D93415050409C
:10496000E0F70895FC018191861721F08823D9F79B
:10497000992708953197CF010895FB01DC018D91AE
:10498000019080190110D9F3990B0895FB01DC0106
:1049900001900D920020E1F70895FB01DC014150E8
:1049A000504030F08D910190801919F40020B9F732
:1049B000881B990B089515E0CCE4D5E004C0FE01F6
:1049C0000E94B5222196CD34D107C9F7F894FFCFC4
:1049D0000000140480000000000009076906960624
:1049E0005607C706A506B9060000000088105B1030
:1049F0002F15770554104110321000000000761674
:104A000069062F155A0600000000120C69062F15C2
:104A10005A061D097705B70E8F0EAB0E9F0E1F0F9E
:104A20007705D809FC138D08D608D80DBB0D430DAA
:104A3000E40C000000006A1469062F157705C614FF
:104A4000DC1452140D0A00476573656E64657420AA
:104A5000616E204553503A2000456D7066616E6767
:104A6000656E3A200041434B7C007568727A656937
:104A700074005568727A6569743A006E6163687291
:104A800069636874004E61636872696368743A00B0
:104A900053797374656D20737461727465742E2E0E
:104AA0002E00426F6F74696E672E2E2E0075706433
:044AB00061746500C8
:00000001FF
