:100000000C9450050C9478050C9478050C94AD1B59
:100010000C94AD1B0C94AD1B0C9478050C947805D6
:100020000C9478050C9478050C9478050C9478055C
:100030000C9478050C9478050C9478050C9478054C
:100040000C940B1B0C9478050C947B1B0C94551B87
:100050000C9478050C9478050C9478050C9478052C
:100060000C94251C0C94780500000000003E5B4FAA
:100070005B3E3E6B4F6B3E1C3E7C3E1C183C7E3C08
:10008000181C577D571C1C5E7F5E1C00183C180016
:10009000FFE7C3E7FF0018241800FFE7DBE7FF30A6
:1000A000483A060E2629792926407F050507407F14
:1000B00005253F5A3CE73C5A7F3E1C1C08081C1C87
:1000C0003E7F14227F22145F5F005F5F06097F017D
:1000D0007F006689956A606060606094A2FFA29468
:1000E00008047E040810207E201008082A1C080836
:1000F0001C2A08081E101010100C1E0C1E0C303884
:100100003E3830060E3E0E06000000000000005F84
:1001100000000007000700147F147F14242A7F2AA0
:100120001223130864623649562050000807030062
:10013000001C2241000041221C002A1C7F1C2A08AE
:10014000083E080800807030000808080808000011
:1001500060600020100804023E5149453E00427F85
:10016000400072494949462141494D331814127FD4
:100170001027454545393C4A494931412111090774
:100180003649494936464949291E000014000000F5
:1001900040340000000814224114141414140041C7
:1001A00022140802015909063E415D594E7C121184
:1001B000127C7F494949363E414141227F414141BC
:1001C0003E7F494949417F090909013E4141517337
:1001D0007F0808087F00417F41002040413F017FA8
:1001E000081422417F404040407F021C027F7F0470
:1001F00008107F3E4141413E7F090909063E4151B9
:10020000215E7F09192946264949493203017F01A8
:10021000033F4040403F1F2040201F3F4038403FA9
:10022000631408146303047804036159494D4300BF
:100230007F4141410204081020004141417F0402F6
:10024000010204404040404000030708002054548D
:1002500078407F284444383844444428384444286B
:100260007F385454541800087E090218A4A49C78BE
:100270007F0804047800447D40002040403D007F1A
:100280001028440000417F40007C047804787C08FA
:100290000404783844444438FC18242418182424CE
:1002A00018FC7C08040408485454542404043F44B3
:1002B000243C4040207C1C2040201C3C4030403CE2
:1002C00044281028444C9090907C4464544C440042
:1002D00008364100000077000000413608000201A6
:1002E0000204023C2623263C1EA1A161123A404092
:1002F000207A38545455592155557941225454780F
:1003000042215554784020545579400C1E527212A7
:100310003955555559395454545939555454580030
:1003200000457C410002457D420001457C407D1234
:1003300011127DF0282528F07C5455450020545496
:100340007C547C0A097F4932494949323A44444441
:100350003A324A4848303A4141217A3A424020787C
:10036000009DA0A07D3D4242423D3D4040403D3C7D
:1003700024FF2424487E4943662B2FFC2F2BFF09A2
:1003800029F620C0887E0903205454794100004496
:100390007D413048484A32384040227A007A0A0A81
:1003A000727D0D19317D2629292F282629292926F4
:1003B00030484D4020380808080808080808382F39
:1003C00010C8ACBA2F102834FA00007B00000814C3
:1003D0002A142222142A14085500550055AA55AA99
:1003E00055AAFF55FF55FF000000FF00101010FF39
:1003F00000141414FF001010FF00FF1010F010F094
:10040000141414FC001414F700FF0000FF00FF1484
:1004100014F404FC141417101F10101F101F1414D0
:10042000141F00101010F0000000001F101010101A
:100430001F10101010F010000000FF10101010100E
:1004400010101010FF10000000FF140000FF00FF4C
:1004500000001F10170000FC04F4141417101714E8
:1004600014F404F40000FF00F7141414141414140A
:10047000F700F7141414171410101F101F1414147D
:10048000F4141010F010F000001F101F0000001FE7
:1004900014000000FC140000F010F01010FF10FF1A
:1004A000141414FF141010101F00000000F010FFAF
:1004B000FFFFFFFFF0F0F0F0F0FFFFFF0000000093
:1004C00000FFFF0F0F0F0F0F3844443844FC4A4A17
:1004D0004A347E02020606027E027E0263554941CC
:1004E000633844443C04407E201E2006027E020203
:1004F00099A5E7A5991C2A492A1C4C7201724C3017
:100500004A4D4D303048784830BC625A463D3E49ED
:100510004949007E0101017E2A2A2A2A2A44445F91
:10052000444440514A444040444A51400000FF0185
:1005300003E080FF000008086B6B08361236243693
:10054000060F090F060000181800000010100030F8
:1005500040FF0101001F01011E00191D1712003C80
:100560003C3C3C0000000000000103070F1F3F7FE0
:100570000080C0E0F0F8FCFEDB40A4A62EAF200017
:10058000A1C8D300408DAED580A800006000000057
:100590000000000000000000000000E0000000007B
:1005A00000000000000000000001E000000000006A
:1005B000000000000000000001F00000000000004A
:1005C0000000000000000003F00000000000000038
:1005D00000000000000007F0000000000000000024
:1005E000000000000007F80000000000000000000C
:1005F000000000000FF800000003C0007E000001B2
:10060000E0007F0FF800000003C000FE000001E0E2
:1006100000FFEFF800000003C000FE000001E00052
:10062000FFFFF800000003C000F00000000F007F93
:10063000FE7FC0000003C000F00000000F003FFE7E
:100640007FF83FF1FBCFFCFEF3BC3DEFE01FFE7FE8
:10065000FF7FFBFFDFFEFEFFBC3DEFE01FC6FFFF9D
:100660007FFBFFDFFEFEFFBC3DEFE00FE3C7FE7840
:100670007BC3DE1EF0FFBC3DEF0007FF87FC787BED
:10068000C3DE1EF0F83C3DEF0001FFFFF0007BC32E
:10069000C01EF0F03C3DEF0001F37FE03FFBC3CF15
:1006A000FEF0F03C3DEF0003E33F807FFBC3DFFE45
:1006B000F0F03C3DEF0007E73C00787BC3DE1EF026
:1006C000F03C3DEF0007FFBE00787BC3DE1EF0F07C
:1006D0003C3DEF0007FFFE00787BC3DE1EF0F03CE0
:1006E0003DEF000FFFFE007FFBFFDFFEF0F03FFD60
:1006F000EFE00FFFFF007FFBFFDFFEF0F03FFDEFBD
:10070000E00FF9FF003E79F9CF9EF0F01F3DE7E0E2
:100710001FF1FF0000000000000000000000001FAB
:1007200080FF007FFFFFFFFFFFFFFFFFFFE01C00D8
:100730007F007FFFFFFFFEB46D888D18E000001F73
:10074000007FFFFFFFFE95AD7DB577E000000F0055
:100750007FFFFFFFFEA5AD9D8D19E0000006007F25
:10076000FFFFFFFEB5ADEDB57EE00000000000012B
:100770008000000000000000000003800000000076
:10078000000000000007C0000000000000000000A2
:1007900007C00000000000000000000FC0000000C3
:1007A0000000000000001FE000000000000000004A
:1007B000001FE00000000000000000003FE000001B
:1007C000000000000000003FF000000000000000FA
:1007D00000007FF0000000000000001FF87FF00024
:1007E0000000000000003FFE7FF00000000000005D
:1007F000003FFF7FF0000000000000001FFFFBE053
:10080000000000000000000FFFF9FFC00000000022
:1008100000000FFFF9FFF800000000000007FFF1E3
:10082000FFFF00000000000003FC73FFFF800000DA
:1008300000000001FE3FFFFF80000000000000FFFD
:100840001E0FFF000000000000007FFE1FFC0000E4
:1008500000000000003FFFFFF80000000000000063
:100860000FDFFFE0000000000000001F19FFC000C4
:100870000000000000003F3CFF00000000000000FE
:10088000007E7CF800000000000000007FFE7C007D
:1008900000000000000000FFFFFC0000000000005E
:1008A0000000FFFFFE0000000000000000FFFFFE50
:1008B0000000000000000001FFEFFE00000000004B
:1008C000000001FFCFFE0000000000000003FF0752
:1008D000FE0000000000000003FC07FE0000000016
:1008E00000000003F003FE00000000000000018093
:1008F00000FE000000000000000000007E0000007C
:10090000000000000000003E0000000000000000A9
:1009100000000C000000000000078000FC00000345
:10092000C0000000078001FC000003C000000007B9
:100930008001FC000003C0000000078001E000000F
:10094000001E000000078001E00000001E007FE3A1
:10095000F79FF9FDE7787BDFC0FFF7FFBFFDFDFFE5
:10096000787BDFC0FFF7FFBFFDFDFF787BDFC0F0C6
:10097000F787BC3DE1FF787BDE00F0F787BC3DE107
:10098000F0787BDE0000F787803DE1E0787BDE00D9
:100990007FF7879FFDE1E0787BDE00FFF787BFFDF3
:1009A000E1E0787BDE00F0F787BC3DE1E0787BDEBC
:1009B00000F0F787BC3DE1E0787BDE00F0F787BC14
:1009C0003DE1E0787BDE00FFF7FFBFFDE1E07FFB6C
:1009D000DFC0FFF7FFBFFDE1E07FFBDFC07CF3F38B
:1009E0009F3DE1E03E7BCFC0000000000000000022
:1009F000000000FFFFFFFFFFFFFFFFFFFFC0FFFF43
:100A0000FFFFFD68DB111A31C0FFFFFFFFFD2B5A0E
:100A1000FB6AEFC0FFFFFFFFFD4B5B3B1A33C0FFDC
:100A2000FFFFFFFD6B5BDB6AFDC01F1C1F1E1F1E4F
:100A30001F1F1E1F1E00000000240027002A0000A8
:100A40000000090003020000040508000000000087
:100A50000000000000002200FF2100000000230031
:100A60002600290000000000250028002B000404B7
:100A70000404040404040202020202020303030346
:100A80000303020203010204081020408001020453
:100A9000081020010204081020408040501D8125CC
:100AA00011241FBECFEFD8E0DEBFCDBF24E0A0E30E
:100AB000B2E001C01D92A038B207E1F712E0A0E059
:100AC000B1E0EEE6F6E502C005900D92A033B10765
:100AD000D9F715E0CFE4D5E004C02197FE010E94CC
:100AE000F628CE34D107C9F70E94E81E0C942A2BB1
:100AF0000C940000282F9091230381E0913208F09C
:100B000042C08091FF028111FCCF8091220332E02C
:100B10003093FF022093FE022FEF2093FD0222E08C
:100B200033E03093FC022093FB021092FA02909380
:100B3000F9021092F8029091F802880F892B8093A5
:100B4000F8028091F702813029F51092F702809126
:100B5000F8028093BB008091BC0083FDF8CF85EC48
:100B60008093BC008091FF028230E1F38091FD020E
:100B70008F3F91F08091FD02803281F08091FD02E3
:100B8000803371F084E010920103109223031092DD
:100B90000003089585EEE4CF80E0F5CF82E0F3CF47
:100BA00083E0F1CF089508950895843081F028F40A
:100BB0008230E9F08330F9F00895883071F089309F
:100BC00091F08530B9F4809180008F7D03C08091D1
:100BD00080008F778093800008958091B0008F7798
:100BE0008093B00008958091B0008F7DF9CF84B5D7
:100BF0008F7784BD089584B58F7DFBCF1F93CF93EE
:100C0000DF93282F30E0F901E15CF54F8491F90181
:100C1000EB57F54FD491F901E259F54FC491CC232C
:100C2000A9F0162F81110E94D505EC2FF0E0EE0FF0
:100C3000FF1FEC59F54FA591B4918FB7F894EC9143
:100C4000111108C0D095DE23DC938FBFDF91CF91C7
:100C50001F910895DE2BF8CF1092F6021092F50244
:100C600010920103109223031092FF0281E08093FF
:100C7000FE021092F70261E082E10E94FE0561E04F
:100C800083E10E94FE05E9EBF0E080818E7F8083A6
:100C900080818D7F808380E28093B80085E480939B
:100CA000BC0082ED95E09093F4028093F30283ED13
:100CB00095E09093F2028093F1020895CF93DF9331
:100CC00090E0FC01EB57F54F24918259954FFC01C0
:100CD00084918823D1F090E0880F991FFC01EB5C90
:100CE000F54FA591B491FC01EC59F54FC591D49104
:100CF00061110EC09FB7F8948C91E22FE0958E237E
:100D00008C932881E223E8839FBFDF91CF910895E0
:100D10008FB7F894EC91E22BEC938FBFF6CF0000E5
:100D200000008330910528F0880F991F05970197DF
:100D3000F1F708953FB7F8948091CB029091CC02DF
:100D4000A091CD02B091CE0226B5A89B05C02F3F41
:100D500019F00196A11DB11D3FBFBA2FA92F982FE1
:100D60008827BC01CD01620F711D811D911D43E0DB
:100D7000660F771F881F991F4A95D1F708958F92A4
:100D80009F92AF92BF92CF92DF92EF92FF926B0150
:100D90007C010E949A064B015C01C114D104E1045C
:100DA000F104B9F00E949A06681979098A099B0929
:100DB000683E73408105910580F321E0C21AD10895
:100DC000E108F10888EE880E83E0981EA11CB11C92
:100DD000E4CFFF90EF90DF90CF90BF90AF909F90C7
:100DE0008F9008952FB7F8946091C7027091C80250
:100DF0008091C9029091CA022FBF08952F923F920D
:100E00004F925F926F927F928F929F92AF92BF921A
:100E1000CF92DF92EF92FF920F931F93CF93DF93C6
:100E20006B017C010E94F2064B015C01C114D104EC
:100E3000E104F10441F4C090D903D090DA03E090CA
:100E4000DB03F090DC03C1E046E0242E53E0352EB6
:100E500068E0462E72E0572EE7E06E2EFAE07F2E15
:100E600004E0D9E015E08091D3039091D403DC0134
:100E7000ED91FC910084F185E02D0995892B09F411
:100E8000BAC060E070E0CB010E94BF062091F10380
:100E90008091D3039091D403DC01ED91FC91028405
:100EA000F385E02D21110BC009958093DD038E376A
:100EB000D1F68091F1038F5F8093F103D4CF099530
:100EC0009091F103E92FF0E0ED52FC4F82879230D0
:100ED00069F1993089F1913059F58F3F49F11092BC
:100EE000F103C093F3031092F6031092F503C0933D
:100EF000F7031092F8030E94F206681979098A092B
:100F00009B09C616D706E806F90608F0C1C010927C
:100F1000F1031092F3031092F6031092F50381E0AF
:100F20008093F7031092F80380E06AC08630B9F628
:100F30009F5F9093F10397CF8F3E89F6E091E00396
:100F40008091E20390E04091E30350E06091E4037C
:100F500070E0762F66272091E503620F711D2091C6
:100F6000DF032E0F3327331FF091E1032F0F311DC5
:100F7000280F391F240F351FF091DE032F0F311D6D
:100F80003195219531096217730709F0A8CF1092A6
:100F9000F103E13419F41092F8032DC0E093F40347
:100FA000982F8827480F591F5093F6034093F50355
:100FB000EA53E63108F063C0F0E0EF51F84F0C94CB
:100FC000F62824082E08F707F7073B081308380807
:100FD0003F083B083B083B083B083B083B083B08F5
:100FE0003B083F083B083B083B083B083B08109385
:100FF000F303C093F7038091F703882309F47BCFB1
:10100000DF91CF911F910F91FF90EF90DF90CF90E4
:10101000BF90AF909F908F907F906F905F904F9018
:101020003F902F90089540FF03C0D093F303E1CF8A
:1010300041FF03C00093F303DCCF43705527452BDA
:10104000D1F27092F303D5CF40FF03C06092F30357
:10105000D0CF41FFD0CF5092F303CBCF40FF03C09E
:101060004092F303C6CF41FFC6CF3092F303C1CF06
:101070002092F303BECFBBE0B093F303BACFC0938B
:10108000F3031092F6031092F503C093F70383CF96
:1010900060E070E0CB010E94BF06E5CE8091EB03DB
:1010A000882379F08091F803882359F060E070E09C
:1010B000CB010E94BF0660E070E0CB010E94FE06FB
:1010C000F1CF8091D3039091D403DC01ED91FC9199
:1010D0000280F381E02D4AE050E067EE73E009956D
:1010E0000E94F2066093D5037093D6038093D703D2
:1010F0009093D8038091EB0391E0811101C090E0BF
:101100009093F803811106C06AE070E080E090E0FF
:101110000C94BF0608950895DB0114964D915C91DF
:1011200015976D917C91DC01ED91FC910280F3812A
:10113000E02D0994AF92BF92CF92DF92EF92FF928F
:101140000F931F93CF93DF936C017B018B01040FEF
:10115000151FEB015E01AE18BF08C017D10759F08B
:101160006991D601ED91FC910190F081E02DC601CD
:101170000995892B79F7C501DF91CF911F910F91C7
:10118000FF90EF90DF90CF90BF90AF900895FC015B
:10119000538D448D252F30E0842F90E0821B930BDC
:1011A000541710F0CF96089501970895FC01918D82
:1011B000828D981761F0A28DAE0FBF2FB11D5D9685
:1011C0008C91928D9F5F9F73928F90E008958FEF27
:1011D0009FEF08950F931F930E94F20660932C03D4
:1011E00070932D0380932E0390932F0384E293E05A
:1011F0000E94D60897FF1DC00E94F20600912C03A2
:1012000010912D0320912E0330912F03601B710B41
:10121000820B930B009128031091290320912A033C
:1012200030912B036017710782079307F8F28FEF55
:101230009FEF1F910F910895FC01918D828D98175A
:1012400031F0828DE80FF11D858D90E008958FEFCC
:101250009FEF0895FC01918D228D892F90E0805C95
:101260009F4F821B91098F739927089584E293E021
:101270000E942A0921E0892B09F420E0822F089599
:1012800080E090E0892B29F00E94360981110C94AE
:1012900000000895FC01A48DA80FB92FB11DA35A19
:1012A000BF4F2C91848D90E001968F739927848F86
:1012B000A689B7892C93A089B1898C9183708064A9
:1012C0008C93938D848D981306C00288F389E02D4A
:1012D00080818F7D80830895EF92FF920F931F93FB
:1012E000CF93DF93EC0181E0888F9B8D8C8D9813D9
:1012F0001AC0E889F989808185FF15C09FB7F894E5
:10130000EE89FF896083E889F98980818370806430
:1013100080839FBF81E090E0DF91CF911F910F917B
:10132000FF90EF900895F62E0B8D10E00F5F1F4F8A
:101330000F731127E02E8C8D8E110CC00FB607FC99
:10134000FACFE889F989808185FFF5CFCE010E9427
:101350004A09F1CFEB8DEC0FFD2FF11DE35AFF4F42
:10136000F0829FB7F8940B8FEA89FB8980818062B5
:10137000CFCFCF93DF93EC01888D8823B9F0AA8972
:10138000BB89E889F9898C9185FD03C0808186FD40
:101390000DC00FB607FCF7CF8C9185FFF2CF80818F
:1013A00085FFEDCFCE010E944A09E9CFDF91CF91B1
:1013B00008952091BC023091BD022817390771F4BD
:1013C0009091BA028091BB02981741F0E091BA0265
:1013D000F0E0E758FD4F808190E008958FEF9FEF98
:1013E0000895EF92FF920F931F93CF93DF93DC0149
:1013F0005C96ED90FC905D97E114F10479F481E046
:1014000090E013969C938E93129790E080E0DF918A
:10141000CF911F910F91FF90EF9008955196ED910C
:10142000FC91529750968C915097982F90950FB7AA
:101430005E962C915E97122F127021FD6095F894A4
:101440002081112319F1282B2083E7012197F1F73F
:1014500028E0462F50E0308160FF1AC0382B3083DF
:10146000E7012197F1F7BA0175956795215089F742
:10147000112381F08081892380830FBF5C968D9139
:101480009C910197F1F781E090E0C1CF2923DCCF57
:101490003923E5CF9081892BEFCF2091BC02309189
:1014A000BD022817390761F48091BB022091BA026E
:1014B00090E0805C9F4F821B91098F73992708955C
:1014C00090E080E008952091BC023091BD02281781
:1014D0003907B9F49091BA028091BB02981789F04C
:1014E000E091BA02F0E0E758FD4F80812091BA0206
:1014F00030E02F5F3F4F2F7333272093BA0290E0E5
:1015000008958FEF9FEF0895EF92FF920F931F932F
:10151000CF93DF93EC01EC80FD806E157F050CF01E
:1015200070C057FF04C0240F351F50E040E08E818B
:101530009F81FA01E20FF31F8E179F071CF49C0195
:10154000241B350B121613060CF05BC0922F842F50
:101550008695869586958E9DD0018F9DB00D112420
:101560006A0F7B1FAF8DB8A1A60FB71F477049F157
:1015700088E0841B482F682F70E0FB01E059FA4F88
:10158000E491281708F063C0621B71092FEF30E067
:1015900002C0359527956A95E2F7E22301301105DF
:1015A00039F0B0F10230110561F58C91E82702C0E5
:1015B0008C91E82BEC93941720F12C813D81A20FA4
:1015C000B31FE92FE41BE83078F00230110521F554
:1015D0008E2F9C9190959C932C813D81A20FB31FDF
:1015E00088508830B0F7E770EE2359F0F0E0E85902
:1015F000FA4FE49101301105F9F010F102301105B4
:1016000019F1DF91CF911F910F91FF90EF90089505
:10161000E0958C91E823CECF81E00115110509F406
:1016200080E081959E2F8C932C813D81A20FB31F6A
:1016300098509830C0F7D7CF8C91E82BEC93E1CF3E
:10164000E0958C91E823FACF8C91E827F7CF013011
:10165000110509F4ADCFE0F20230110509F4A5CF70
:10166000AE0DBF1DAECF0F931F93CF93DF9377FFC8
:1016700004C0260F371F70E060E0DC011496CD91A6
:10168000DC91FB01E20FF31FCE17DF071CF49E0174
:10169000261B370B121613064CF5FA0157FD379629
:1016A000A3E0F595E795AA95E1F7EC9FD001ED9FB2
:1016B000B00DFC9FB00D11246A0F7B1FDC015F96FB
:1016C000ED91FC91E60FF71F4770552781E090E000
:1016D00001C0880F4A95EAF7482F0130110559F0EB
:1016E000A8F02E0F3F1F02301105E1F0DF91CF91DE
:1016F0001F910F9108952E0F3F1FE217F307B1F3CB
:101700008191DF011197842B8C93F7CF80952E0F59
:101710003F1FE217F30751F39191DF0111979823CF
:101720009C93F7CFE217F30709F38191DF0111973B
:1017300084278C93F7CF0F931F93FA01DC01569601
:101740004C9156974230E9F04330A1F1413061F5B8
:1017500014964D915C91DA01AE1BBF0BFD01E21BAB
:10176000F30B77FD0BC0DC0116964D915C9164176D
:10177000750724F4AB01BF010E94330B1F910F9139
:10178000089514964D915C91DA01A61BB70BBD012B
:1017900061507109DC0116964D915C91DA01AE1B26
:1017A000BF0BFD01E21BF30B77FDE8CFAF010E94F9
:1017B000840AE4CF16964D915C91DA01A61BB70B13
:1017C000BD0161507109CDCF0F931F93FA01DC0168
:1017D00056964C9156974230A9F0433091F14130E2
:1017E00019F514964D915C91DA01AE1BBF0BFD010A
:1017F0003197F7FD04C0AB01BF010E94840A1F911D
:101800000F91089516964D915C91DA01AE1BBF0BB6
:10181000FD013197DC0114964D915C91DA01A61B14
:10182000B70BBD01621B730BF7FDE9CFDC01169608
:101830004D915C91E417F50714F7AF010E94330B4B
:10184000DECF16964D915C91DA01A61BB70BBD0158
:10185000621B730BCECFFC0177FD64C08085918540
:10186000681779070CF05EC057FD5CC082859385D0
:10187000481759070CF056C086898230B1F0833082
:1018800029F1813041F484819581841B950BAB0152
:10189000BC01615071092130310509F108F443C0E0
:1018A0002230310509F463C0089584819581DC01FB
:1018B000A61BB70BBD016150710986819781DC01C0
:1018C000A41BB50BAD0141505109E5CF868197812D
:1018D000861B970BBA01AC0141505109DCCFCA01FC
:1018E00057FD0796A3E095958795AA95E1F7A48102
:1018F000B5818A9F90018B9F300D9A9F300D1124E6
:10190000620F731F078CF0A1E02DE60FF71F4770E1
:10191000552721E030E001C0220F4A95EAF7808187
:10192000822B80830895CA0157FD079633E0959571
:1019300087953A95E1F7A481B5818A9F90018B9FA5
:10194000300D9A9F300D1124620F731F078CF0A188
:10195000E02DE60FF71F4770552781E090E001C0AA
:10196000880F4A95EAF7809590818923DACFCA01DA
:1019700057FD079623E0959587952A95E1F7A48171
:10198000B5818A9F90018B9F300D9A9F300D112455
:10199000620F731F078CF0A1E02DE60FF71F477051
:1019A000552721E030E001C0220F4A95EAF78081F7
:1019B0008227B7CF08958EBD00000DB407FEFDCF7E
:1019C0008EB508958CBD9DBD08950895FC0163708A
:1019D000668B8481958126813781613039F063304F
:1019E00029F0918780873387228708953187208760
:1019F0009387828708952F923F924F925F926F92C2
:101A00007F928F929F92AF92BF92CF92DF92EF928E
:101A1000FF920F931F93CF93DF93CDB7DEB76A97F3
:101A20000FB6F894DEBF0FBECDBF9A8F898F7A8331
:101A300069834A01D22E18870F833701BC2CDC0141
:101A400059962D913C915A972115310509F015C1F0
:101A500018968D919C911997681779070CF0D7C14A
:101A60001A968D919C91481759070CF0D0C14C2CB7
:101A7000512CB6E0CB9E600D711D11247C876B87C5
:101A8000161617060CF0C3C1EA2DF0E0FA87E987B5
:101A900093E0EE0FFF1F9A95E1F7F88BEF87CF01E8
:101AA000840F951F181619060CF0B1C1A98DBA8DB7
:101AB00058968C91811104C0BFEABD1508F4D394E7
:101AC000A98DBA8DED91FC9111970284F385E02DDB
:101AD000CD010995B5E0DB9EC0011124E981FA81B1
:101AE000FC83EB83312C212C9C0128593F4F388FEC
:101AF0002F8B4A2D50E05E8B4D8BEF89F88DE20DD8
:101B0000F31D44919E828D82D12CC12C69817A81F2
:101B1000620D731D7A8B698B842F90E09C8B8B8B6D
:101B2000E98DFA8DA081B18140FF82C0F1E0BF1242
:101B30006FC0AF126DC01C96ED91FC912F8138855E
:101B4000A4014C0D5D1D69897A89898D9A8D09954D
:101B5000EB89FC89F595E7954E2F5FEFC51AD50AFD
:101B60006D817E818D899E89680F791F7E836D834B
:101B700098E0C916D10481F6AFEF2A1A3A0AEB8130
:101B8000FC81E40DF51DFC83EB83F5E02F16310499
:101B900009F0B3CF2F81388526153705B9F0A98D07
:101BA000BA8DED91FC91B1E0BB1257C0AB1255C09C
:101BB00069817A816B5F7F4F0088F189E02D830115
:101BC00028E030E0A401898D9A8D0995A98DBA8D00
:101BD000ED91FC9111970688F789E02DCD016A9669
:101BE0000FB6F894DEBF0FBECDBFDF91CF911F912E
:101BF0000F91FF90EF90DF90CF90BF90AF909F90AC
:101C00008F907F906F905F904F903F902F900994AE
:101C10001E96ED91FC91EF80F88409851A8592015A
:101C20004D815E816B817C81898D9A8D099590CFE4
:101C30002F8138852615370509F48ACF31E0B31294
:101C400007C0A31205C01C96ED91FC91930178CFBB
:101C50001E96ED91FC917301E0CF6B857C85641934
:101C600075090684F785E02D73010F8518899201A7
:101C7000A401898D9A8D0995A9CFF9013496949183
:101C8000329745915491D91AB7E0DB9E400D511D12
:101C90001124F901259134913C8B2B8BFA0125906D
:101CA0003490FA013296749031963491398B329691
:101CB00064903196449041E04C1518F04A1508F0B4
:101CC0007FC0662D062C000C770B7C836B83842DE4
:101CD000042C000C990B9E838D83A98DBA8DED91F8
:101CE000FC9111970284F385E02DCD010995512CCB
:101CF000D12CC12CEA2DF0E0FA87E9872B2D30E0BA
:101D00003C872B87A401440D511D47FC5A95588FE1
:101D10004F8B69817A81660D711D67FC7A957E878C
:101D20006D877989C71608F051CF2C2D30E04D8191
:101D30005E81420F531FA985BA854A9FC0014B9F00
:101D4000900D5A9F900D1124FC01E80DF91DF88BA0
:101D5000EF87852D612C4F89588D420F531F5E8B65
:101D60004D8B671408F050C044244394480E87708C
:101D700041F4C1010196EB89FC89E20DF31DD49079
:101D80001C01D7FE19C0A98DBA8DED91FC91662D6D
:101D900070E0B1E0BB1219C0AB1217C02D853E85B3
:101DA000620F731F0484F585E02D2F8138854D89DE
:101DB0005E89898D9A8D0995DD0C6394842DD1CF30
:101DC0001E821D821C821B8288CF4B815C81640F26
:101DD000751FAB85BC856A9FC0016B9F900D7A9F74
:101DE000900D112469817A81680F791F0684F78527
:101DF000E02DEF80F88409851A859D014F8558896B
:101E0000898D9A8D0995D8CF570CC3948ACF6A963D
:101E10000FB6F894DEBF0FBECDBFDF91CF911F91FB
:101E20000F91FF90EF90DF90CF90BF90AF909F9079
:101E30008F907F906F905F904F903F902F9008957C
:101E40008F929F92AF92CF92EF92FF920F931F9338
:101E5000CF93DF93EC01262F898D9A8D009709F09F
:101E600051C06A30D1F41D861C868D8948E0849F5C
:101E7000900111248E859F85820F931F9F878E87E7
:101E800081E090E0DF91CF911F910F91FF90EF9053
:101E9000CF90AF909F908F9008956D3089F3CC884C
:101EA000AD888F898823C1F08C859D8536E0C39EDF
:101EB000800D911D1124488559854817590764F4F0
:101EC0004E855F851D861C8638E0A39EC0011124C7
:101ED000840F951F9F878E87EA88FB880889198958
:101EE0004E855F856C857D85CE010E94FB0C2C891B
:101EF0008C859D8546E0249F800D911D11249D8732
:101F00008C87BECF6A3069F41D861C86FC0138962A
:101F1000E4912D898E859F85E29F800D911D11246E
:101F2000ADCF6D3009F4ACCFFC013496349163171A
:101F300008F4A6CF3296E491E61708F4A1CFFC018D
:101F4000329685909490462F431B342F47E0349F60
:101F5000800C911C1124F401329634913196E49155
:101F60003323A9F1EE2399F1CC88F4013596E4915D
:101F7000AD884F89442301F10E2E000CFF0BE30FB7
:101F8000F11DCE9EA001CF9E500D11246C857D8544
:101F9000460F571F68857985641775076CF44E8561
:101FA0005F851D861C86FC013896E491AE9E400D2F
:101FB000511D11245F874E87EA88FB88088919899B
:101FC0004E855F856C857D85CE010E94FB0CF401FA
:101FD0003496E4912C898C859D85E29F800D911D1E
:101FE00011248DCF6F927F928F929F92AF92BF926A
:101FF000CF92DF92EF92FF920F931F93CF93DF93D5
:10200000EC016B015A0139014801E881F981028430
:10201000F385E02D0995E881F9810288F389E02DA7
:1020200087019301A501B601CE010995A501480DCF
:10203000591D41505109E881F9810288F389E02D49
:102040009301B601CE010995E881F9810088F189F3
:10205000E02D9401A501B601CE010995C60CD71C4F
:10206000B60161507109E881F9810088F189E02D9C
:102070009401A501CE010995E881F9810688F789C7
:10208000E02DCE01DF91CF911F910F91FF90EF9046
:10209000DF90CF90BF90AF909F908F907F906F9088
:1020A00009946F927F928F929F92AF92BF92CF923C
:1020B000DF92EF92FF920F931F93CF93DF935C0118
:1020C000EB016A01490138018701DC01ED91FC91C6
:1020D0006217730719F5641675062CF0962D872D77
:1020E0003A01C92ED82E9601261937092F5F3F4F86
:1020F000048CF58DE02DA301BE01C5010995DF918A
:10210000CF911F910F91FF90EF90DF90CF90BF90F4
:10211000AF909F908F907F906F90089546155705D0
:1021200091F42617370724F0892D4B01C22FD82FA1
:102130009E01281939092F5F3F4F068CF78DE02D3E
:10214000A601B401DACF0284F385E02D0995D5010B
:10215000ED91FC910488F589E02D83019401A6019D
:10216000BE01C5010995D501ED91FC910688F7895D
:10217000E02DC501DF91CF911F910F91FF90EF905E
:10218000DF90CF90BF90AF909F908F907F906F9097
:102190000994EF92FF920F931F93DC011A960D9111
:1021A0001C911B9718962D913C911997ED91FC91DC
:1021B00000A0F1A1E02D7B0150E040E070E060E084
:1021C00009951F910F91FF90EF9008954F925F92A4
:1021D0006F927F928F929F92AF92BF92CF92DF9237
:1021E000EF92FF920F931F93CF93DF936C012B011C
:1021F0005A0139014801DC01ED91FC910284F3851B
:10220000E02D0995E201640C751CD601ED91FC915D
:10221000C615D7055CF40088F189E02D870194018B
:10222000A501BE01C60109952196EFCF0688F78961
:10223000E02DC601DF91CF911F910F91FF90EF909C
:10224000DF90CF90BF90AF909F908F907F906F90D6
:102250005F904F9009948F929F92AF92BF92CF92CE
:10226000DF92EF92FF920F931F93CF93DF93EC01D6
:102270005B014A016901E881F9810284F385E02D5F
:10228000099595012C0D3D1D21503109E881F981F9
:102290000488F589E02D78018401A401B501CE01FF
:1022A0000995E881F9810688F789E02DCE01DF9153
:1022B000CF911F910F91FF90EF90DF90CF90BF9043
:1022C000AF909F908F9009948F929F92AF92BF9200
:1022D000CF92DF92EF92FF920F931F93CF93DF93F2
:1022E000EC015B014A0169017801E881F98102840E
:1022F000F385E02D0995C80CD91C86010150110900
:10230000E881F9810488F589E02D9501A401B501E2
:10231000CE010995E881F9810688F789E02DCE0183
:10232000DF91CF911F910F91FF90EF90DF90CF90B1
:10233000BF90AF909F908F900994EF92FF920F9370
:102340001F93DC01ED91FC9100A0F1A1E02D099516
:102350001F910F91FF90EF9008950F931F93DC0151
:10236000ED91FC91068CF78DE02D09951F910F9151
:1023700008950F931F93DC01ED91FC91048CF58D72
:10238000E02D09951F910F910895DC01ED91FC91CD
:102390000084F185E02D09943F924F925F926F92F5
:1023A0007F928F929F92AF92BF92CF92DF92EF92E5
:1023B000FF920F931F93CF93DF935C017B014A0140
:1023C0006901390187E0680E711C93E07594679488
:1023D0009A95E1F72B01400E511E10E000E0312CE0
:1023E000D0E0C0E0CE0187709927330C892B59F4D7
:1023F000FE0183E0F595E7958A95E1F7E00FF11F7F
:10240000E80DF91D349037FE0AC021E030E0A70145
:10241000B5016C0F7D1F84E294E00E94C5112196E6
:10242000CC16DD06F9F68FEFE81AF80A060D171D2F
:10243000E414F504A9F6DF91CF911F910F91FF905D
:10244000EF90DF90CF90BF90AF909F908F907F9054
:102450006F905F904F903F9008952F923F924F92D0
:102460005F926F927F928F929F92AF92BF92CF9224
:10247000DF92EF92FF920F931F93CF93DF9300D0E1
:1024800000D000D0CDB7DEB73C016A013E832D837A
:10249000FC82EB825801A41AB50AB7FE03C0B194BE
:1024A000A194B1088D809E80861A970A97FE03C07A
:1024B0009194819491088A149B045CF0902F812F51
:1024C0000D811E819D838E839C2D8D2D6B01692F27
:1024D000782F0C151D055CF09D818E817E836D83A8
:1024E000692F782F902F812F8601C92ED82E1601A3
:1024F000201A310A2B012D813E81421A530A57FEC0
:1025000003C0519441945108710137FE03C03FEF5D
:10251000E31AF30AF594E7948D819E818617970755
:102520005CF5A1E0B0E0BA83A983C016D1064CF1F6
:10253000D301ED91FC910484F585E02D2B813C8144
:10254000A8016D817E818A149B041CF04D815E81FF
:10255000B801C3010995E418F508F7FE0AC02D81FA
:102560003E8189819A81280F391F3E832D83E20C99
:10257000F31C0F5F1F4FD9CF2FEF3FEF3A83298313
:10258000D4CF26960FB6F894DEBF0FBECDBFDF9135
:10259000CF911F910F91FF90EF90DF90CF90BF9060
:1025A000AF909F908F907F906F905F904F903F90F3
:1025B0002F900895CF93DF93EC0160E08E810E940D
:1025C000FE0581E090E00E948F0661E08E810E940E
:1025D000FE0581E090E00E948F0660E08E810E94FF
:1025E000FE0584E690E0DF91CF910C948F06CF92A8
:1025F000DF92EF92FF920F931F93CF93DF936C01C3
:102600007C0187E0E80EF11CD0E0C0E0062F10E06E
:10261000B8010C2E02C0759567950A94E2F76170B7
:10262000F70181917F010E94FE052196C430D105FA
:1026300079F7C601DF91CF911F910F91FF90EF9035
:10264000DF90CF900C94DA12CF92DF92EF92FF924C
:102650000F931F93CF93DF93EC01F62E642F8C81A1
:102660000E94FE058D818F3F19F060E00E94FE05FB
:102670000F2D10E08F8584FF25C06E0187E0C80E06
:10268000D11CF12CE12CB8010E2C02C07595679578
:102690000A94E2F76170F60181916F010E94FE05D4
:1026A000FFEFEF1AFF0A88E0E816F10461F7CE01A8
:1026B000DF91CF911F910F91FF90EF90DF90CF901E
:1026C0000C94DA12B80184E0759567958A95E1F764
:1026D000CE010E94F7126F2DCE01DF91CF911F9195
:1026E0000F91FF90EF90DF90CF900C94F71240E0A5
:1026F000682F84E694E00C94241381E00E94771301
:1027000080ED97E00C948F06CF93DF93623029F42D
:10271000909173049860909373046093770410927F
:10272000780490E49093790480937A04805C809399
:102730007B0461E0809168040E945E0680916904D8
:102740008F3F19F061E00E945E0661E080916A04AB
:102750000E945E06C4E6D4E09E0124563440809177
:10276000730484FD0BC084E090E02196281739079C
:1027700044F461E08E810E945E06EECF88E090E036
:10278000F4CF80E593EC0E948F0660E080916804AE
:102790000E94FE0560E080916A040E94FE0580911F
:1027A00069048F3F19F060E00E94FE058091730478
:1027B00084FD35C063E084E694E00E94F71284E96A
:1027C00091E10E948F0663E084E694E00E94F71294
:1027D00084E991E10E948F0663E084E694E00E9420
:1027E000F71286E990E00E948F0662E084E694E0AA
:1027F0000E94F7128091730480620E94771384E034
:10280000809374048CE00E9477130E947D1382E011
:102810008093750486E0DF91CF910C9477138062EA
:102820000E94771384E991E10E948F0680917304DE
:1028300080620E94771386E990E00E948F06809163
:10284000730480620E947713D5CF90917704891723
:1028500010F08FEF890FE82FF0E0EC59FB4F8489DF
:1028600080680C94771341E00E94241381E090E08B
:10287000089585ED8093BC008091BC0084FDFCCF61
:102880001092FF02089520915602260F3327331F1E
:1028900021323105ECF42091FF02FC0190E080E050
:1028A000243069F082E00895A09156022191AC0194
:1028B0004A5C5D4FA40FB52FB11D2C93019686176E
:1028C00098F380915602680F6093560280E0089555
:1028D00081E00895E091F6028091F502E81730F466
:1028E000F0E0EF52FD4F808190E008958FEF9FEF71
:1028F00008959091F6028091F5022FEF3FEF98171F
:1029000048F4E92FF0E0EF52FD4F208130E09F5F67
:102910009093F602C90108958091F5029091F60214
:10292000891B990B0895CF92DF92EF92FF920F933C
:102930001F93CF93DF937C01CB018A012091000389
:10294000222389F0EB016B01C40ED51ECC15DD05E9
:1029500069F06991D701ED91FC910190F081E02D32
:10296000C7010995F3CF642F0E944314C801DF917A
:10297000CF911F910F91FF90EF90DF90CF9008952E
:10298000CF93DF931F92CDB7DEB769832091000309
:102990002223F9F020912303203258F021E030E087
:1029A000FC013383228390E080E00F90DF91CF9190
:1029B000089580910103E82FF0E0EE5FFC4F9981CC
:1029C00090838F5F809301038093230381E090E0E5
:1029D000ECCF61E0CE0101960E944314F7CF81E075
:1029E0000C947A05EF92FF920F931F93CF93DF938E
:1029F0007C01C62F8091410490914204009709F414
:102A000059C02091450431E0309300032093220304
:102A10001092010310922303DC01ED91FC910190CF
:102A2000F081E02D60E009958701EE24E394F12C1C
:102A3000D1E0C1508091410490914204CF3F91F187
:102A4000B0E2EB16F104D8F00E94EF14809141043B
:102A50009091420420914504D093000320932203D7
:102A60001092010310922303DC01ED91FC9101907F
:102A7000F081E02D60E00995EE24E394F12C809143
:102A8000410490914204F8016491DC01ED91FC91C4
:102A90000190F081E02D0995BFEFEB1AFB0A0F5F63
:102AA0001F4FC7CFDF91CF911F910F91FF90EF90F4
:102AB0000C94EF14E0915104F091520490818091B4
:102AC00057048095892380838701C15008F438C05A
:102AD000F801849120913F0430914004232B29F088
:102AE0000E94DB0C0F5F1F4FF0CF28E030E040E882
:102AF000E0914D04F0914E0490915504582F5423C9
:102B0000D9F05081952B9083E0914F04F0915004BF
:102B1000908150915604952B9083E0914F04F09151
:102B2000500450819091560490959523908346953A
:102B300021503109E9F6D6CF508190959523E3CF06
:102B4000DF91CF911F910F91FF90EF9008951F9308
:102B5000CF93DF93EC018D8D9E8D009721F1162F81
:102B600029A131E030930003209322031092010346
:102B700010922303DC01ED91FC910190F081E02D96
:102B800060E009958D8D9E8DDC01ED91FC910190A9
:102B9000F081E02D612F09958D8D9E8DDF91CF9174
:102BA0001F910C94EF14ADA5BEA59C918BA98095A7
:102BB00089238C938B8D9C8D892B31F0862FDF910F
:102BC000CF911F910C94DB0C28E030E080E8A9A5A0
:102BD000BAA599A9462F4823C1F04C91942B9C93F8
:102BE000ABA5BCA59C914AA9942B9C93ABA5BCA575
:102BF0004C919AA9909594239C93869521503109E4
:102C000031F7DF91CF911F9108954C9190959423C6
:102C1000E6CFDF92EF92FF920F931F93CF93DF9354
:102C20008091410490914204892B09F4A5C0209120
:102C3000590430915A0440915B0450915C0460E067
:102C400072E18AE790E00E94D428205131094109BD
:102C5000510956954795379527952093B80064E01C
:102C600086E59AE00E94F21480912804909129044C
:102C70008034910509F097C060E284E294E00E94FC
:102C8000A71560912804615E84E294E00E94A71574
:102C900020912A0430912B04C901079697FD0796CD
:102CA00033E0959587953A95E1F720912804309186
:102CB0002904829F8001839F100D929F100D112483
:102CC000C0914304D0914404809141049091420406
:102CD0000C0F1D1F009709F498C02091450431E0A6
:102CE00030930003209322031092010310922303D8
:102CF000DC01ED91FC910190F081E02D60E40995FB
:102D0000EE24E394F12CDD24D3948091410490913E
:102D100042040C171D0709F44FC0B0E2EB16F10492
:102D2000D8F00E94EF1480914104909142042091C8
:102D30004504D092000320932203109201031092C5
:102D40002303DC01ED91FC910190F081E02D60E422
:102D50000995EE24E394F12C809141049091420472
:102D60006991DC01ED91FC910190F081E02D0995D4
:102D7000BFEFEB1AFB0AC9CF80913F04909140044A
:102D8000892B31F080916204909163040E94E20CDF
:102D9000E0915304F09154049081809158048095FF
:102DA000892380835CCF60E084E294E00E94A715D1
:102DB00060912804615068CF0E94EF148091410413
:102DC00090914204892B09F461C020915D043091F7
:102DD0005E0440915F045091600460E072E18AE714
:102DE00090E00E94D428205131094109510956959B
:102DF0004795379527952093B800DF91CF911F9184
:102E00000F91FF90EF90DF900895E0915104F091C1
:102E10005204808190915704892B80830C171D07E1
:102E200069F2899120913F0430914004232B19F0DD
:102E30000E94DB0CF3CF28E030E040E8E0914D0445
:102E4000F0914E0490915504582F5423D9F050819D
:102E5000952B9083E0914F04F09150049081509114
:102E60005604952B9083E0914F04F09150045081CB
:102E70009091560490959523908346952150310961
:102E8000E9F6CCCF508190959523E3CFE0915304A0
:102E9000F0915404808190915804892B8083ADCFA8
:102EA0001F93CF93DF93EC01162F8D8D9E8D892B71
:102EB000B1F12DA93EA94FA958AD60E072E18AE7B2
:102EC00090E00E94D42820513109410951095695BA
:102ED0004795379527952093B80066EA111167EA60
:102EE000CE010E94A7158D8D9E8D892B41F129ADB4
:102EF0003AAD4BAD5CAD60E072E18AE790E00E94D4
:102F0000D4282051310941095109569547953795E3
:102F100027952093B800DF91CF911F9108958B8D55
:102F20009C8D892B21F08EAD9FAD0E94E20CEFA508
:102F3000F8A990818CA9809589238083CECFEFA5B5
:102F4000F8A980819CA9892B8083E5CFCF93DF935B
:102F5000EC018B818823A9F089819A81288131E055
:102F60003093000320932203109201031092230355
:102F70000E94EF1491E0811190E0892FDF91CF91B1
:102F800008950E942C0681E08B83CE010E94A61733
:102F9000982F8111E1CFF1CF90E080E008952F923A
:102FA0003F924F925F926F927F928F929F92AF92D9
:102FB000BF92CF92DF92EF92FF920F931F93CF9326
:102FC000DF936C012B017A0110E000E0332433948D
:102FD00081ED682E82E0782E95EC292E8091FF02FB
:102FE0008111FCCFD60114968D919C91E701C01BF5
:102FF000D10B8C179D0708F4EC01F60190818C2F02
:10300000C13208F080E23092FF0241E097012C1BB0
:103010003D0B0217130708F440E04093FE02FFEF58
:10302000F093FD027092FC026092FB021092FA0291
:103030002FEF280F2093F9023092F8022091F80226
:10304000990F922B9093F8029091F7029130B1F57D
:103050001092F7029091F8029093BB009091BC00FF
:1030600093FDF8CF2092BC009091FF029130E1F3E4
:103070009091FA02981710F48091FA021092F602D9
:103080008093F5028C171D06B9F54201800E911E42
:103090005401C501881999098C179D0798F4D60128
:1030A00011968D919C91DC01ED91FC910284F38548
:1030B000E02D0995F50181935F01EBCF25EE20937B
:1030C000BC00D2CF0C0F1D1F0E151F0508F486CFB4
:1030D00081E0DF91CF911F910F91FF90EF90DF90F2
:1030E000CF90BF90AF909F908F907F906F905F90A8
:1030F0004F903F902F90089580E0EBCF1F93CF9398
:10310000DF93DC011496ED91FC91E417F50710F4C0
:1031100090E01FC0122FEA01FC0181819281208181
:1031200031E03093000320932203109201031092A8
:103130002303DC01ED91FC910280F381E02D0995E0
:10314000C817D90729F7812F0E947A0591E08111CC
:10315000DFCF892FDF91CF911F910895EF92FF92DA
:103160000F931F93CF93DF9300D000D000D01F9216
:10317000CDB7DEB78C011982E090CF02F090D0027B
:1031800020E041E050E0BE016F5F7F4FC7010E9429
:103190007E18882341F047E050E0BE016F5F7F4F0B
:1031A000C7010E94CF17E981EF77FA81FB805D812B
:1031B0004E814F778F81282F30E094E03595279509
:1031C0009A95E1F7922F990F990F291B220F280F3B
:1031D000D8012C93842F90E024E0959587952A952B
:1031E000E1F7982F990F990F891B880F840F11967B
:1031F0008C931197652F70E034E0759567953A953B
:10320000E1F7862F880F880F681B660F650F1296EF
:103210006C9312974F2D50E064E0559547956A9551
:10322000E1F7842F880F880F481B440F4F0D13962A
:103230004C9313972F2F30E074E0359527957A95AE
:10324000E1F7822F880F880F281B220F2F0F14966B
:103250002C9314978E2F90E0F4E095958795FA952E
:10326000E1F7982F990F990F891B880F8E0F1596EC
:103270008C93C80127960FB6F894DEBF0FBECDBF62
:10328000DF91CF911F910F91FF90EF9008952091C2
:103290002A0430912B04C901079697FD079623E075
:1032A000959587952A95E1F7209128043091290476
:1032B000829FA001839F500D929F500D112470E0BA
:1032C00060E080914304909144040C94EC2A0E94A5
:1032D0004719E4E2F4E083E0848B858B158614863D
:1032E00084E190E0978786876DEC73E0CF010E94C0
:1032F0008C080C940916CF93DF93EC018881998197
:10330000009711F00E949829198218821D821C8250
:103310001B821A82DF91CF910895FC0180819181F7
:10332000009711F00C94982908950E94DE2AFB0161
:1033300001900020E9F73197AF01461B570BDC01E4
:10334000ED91FC910280F381E02D09940F931F937E
:10335000CF93DF93EC0188819981009759F02A81FE
:103360003B812617370730F081E0DF91CF911F9125
:103370000F9108958B016F5F7F4F0E94212A009764
:1033800059F0998388831B830A832C813D81232BE9
:1033900059F7FC011082E8CF80E0E7CFEF92FF926F
:1033A0000F931F93CF93DF93EC017B018A01BA0146
:1033B0000E94A61981110BC0CE010E947B19CE017B
:1033C000DF91CF911F910F91FF90EF9008951D8392
:1033D0000C83B701888199810E94F32AF0CFCF93A3
:1033E000DF93EC01FB018617970749F0608171813B
:1033F0006115710541F0448155810E94CE19CE01BD
:10340000DF91CF9108950E947B19F9CFFC011182C1
:1034100010821382128215821482FB010190002017
:10342000E9F73197AF01461B570B0C94CE19AF92B9
:10343000BF92CF92DF92EF92FF920F931F93CF93A1
:10344000DF937C016B015A0189012417350720F4B1
:103450008B2D5901042F182F6FE771E0C7010E94CF
:10346000061AD6011496CD91DC91AC16BD0620F556
:103470000C171D0708F4E801D601ED91FC91119796
:10348000EC0FFD1F108110826D917C916A0D7B1DE8
:1034900061157105E9F0FB0101900020E9F7319712
:1034A000AF01461B570BC7010E94CE19F601808160
:1034B0009181C80FD91F1883C701DF91CF911F9148
:1034C0000F91FF90EF90DF90CF90BF90AF90089555
:1034D000C7010E947B19EACF0F931F93CF93DF930D
:1034E000CDB7DEB762970FB6F894DEBF0FBECDBF83
:1034F00080E00E94251418861F821A8619861C8671
:103500001B8667EC73E0CE0107960E94EF190B85CE
:103510001C8508321105B0F40F5F1F4FB801CE01B2
:1035200007960E94A619882391F32F8138858B85F1
:103530009C856EE771E0820F931F0E94F32A1C871F
:103540000B87E5CF28E230E050E040E0BE01695F44
:103550007F4FCE0101960E94171ABE016F5F7F4F09
:1035600084E694E00E948C08CE0101960E948D1999
:1035700081E00E9425141E861D86188A1F861A8ADD
:10358000198A61EC73E0CE010D960E94EF1909894A
:103590001A8908321105B0F40F5F1F4FB801CE0130
:1035A0000D960E94A619882391F32D853E85898961
:1035B0009A896EE771E0820F931F0E94F32A1A8B9B
:1035C000098BE5CF28E230E050E040E0BE01635FC8
:1035D0007F4FCE0101960E94171ABE016F5F7F4F89
:1035E00084E694E00E948C08CE0101960E948D1919
:1035F000CE010D960E948D19CE0107960E948D195D
:1036000062960FB6F894DEBF0FBECDBFDF91CF91AB
:103610001F910F9108951F920F920FB60F921124D0
:103620002F933F938F939F93AF93BF938091C70244
:103630009091C802A091C902B091CA023091C6020D
:1036400026E0230F2D3768F129E8230F0396A11DEB
:10365000B11D2093C6028093C7029093C802A09325
:10366000C902B093CA028091CB029091CC02A09182
:10367000CD02B091CE020196A11DB11D8093CB0267
:103680009093CC02A093CD02B093CE02BF91AF91A4
:103690009F918F913F912F910F900FBE0F901F9090
:1036A00018950296A11DB11DD4CF1F920F920FB68F
:1036B0000F9211242F933F934F935F936F937F93B8
:1036C0008F939F93AF93BF93EF93FF9384E293E025
:1036D0000E944A09FF91EF91BF91AF919F918F9105
:1036E0007F916F915F914F913F912F910F900FBEFE
:1036F0000F901F9018951F920F920FB60F921124E2
:103700002F938F939F93EF93FF93E0913403F09166
:1037100035038081E0913A03F0913B0382FD1BC0A9
:10372000908180913D038F5F8F7320913E038217BC
:1037300041F0E0913D03F0E0EC5DFC4F958F80930C
:103740003D03FF91EF919F918F912F910F900FBEAD
:103750000F901F9018958081F4CF1F920F920FB693
:103760000F9211242F933F934F935F936F937F9307
:103770008F939F93AF93BF93EF93FF93E091BC021E
:10378000F091BD02309749F0A685B7858585968D65
:1037900091FF14C09C918923A1F4FF91EF91BF91F7
:1037A000AF919F918F917F916F915F914F913F91D9
:1037B0002F910F900FBE0F901F9018959C91892309
:1037C00061F7A389B4899C918589809589238C931D
:1037D000868997890197F1F7608D718DA685B785E8
:1037E000558538E020E0CB010197F1F7822F90E07A
:1037F00095958795282F4C91452309F020683150E5
:1038000091F7868D81FD20958091BB0290E0019615
:103810008F7399273091BA02381799F0A091BB02A3
:10382000B0E0A758BD4F2C938093BB02828D938D3F
:103830000197F1F7A389B4898C919589892B8C9391
:10384000ACCF868D8160868FF1CF1F920F920FB61D
:103850000F9211242F933F934F935F936F937F9316
:103860008F939F93AF93BF93EF93FF938091B90092
:10387000887F803609F44AC0F0F5883209F4A7C081
:1038800018F5803109F49BC0B8F4882309F405C108
:10389000883009F494C0FF91EF91BF91AF919F914F
:1038A0008F917F916F915F914F913F912F910F90E9
:1038B0000FBE0F901F901895883109F488C0803290
:1038C00051F78093FD0214C0803409F4A5C040F480
:1038D0008033B9F38833F9F68093FD0285ECBCC0E0
:1038E000803509F489C0883509F49EC0883499F67A
:1038F0000E943914D0CF883909F494C038F588373C
:1039000029F050F4883611F0803729F683E080934F
:10391000FF021092780257C0883809F483C08039BA
:1039200019F0803809F0B7CF80917802803208F022
:1039300079C0E091780281E08E0F809378028091C7
:10394000BB00F0E0E85AFD4F80833DC0803B39F07A
:10395000E0F4803A09F485C0883A09F09CCF84E00D
:103960008093FF021092570210925602E091F302E8
:10397000F091F40209958091560281110FC081E007
:10398000809356021092360209C0803C09F4A6CFFB
:10399000883C09F4A3CF883B09F07DCFE091570222
:1039A00081E08E0F80935702F0E0EA5CFD4F80814A
:1039B0008093BB00909157028091560231C0809154
:1039C000F8028093BB0085EC8093BC0064CF90919B
:1039D000FA028091F9029817B8F58091FB02909154
:1039E000FC02E091FA0221E02E0F2093FA02E80F88
:1039F000F92FF11D8081E5CF2091FB023091FC026F
:103A0000E091FA0281E08E0F8093FA028091BB0070
:103A1000E20FF32FF11D80839091FA028091F90259
:103A2000981788F285E8D0CF2091FB023091FC02F4
:103A3000E091FA0281E08E0F8093FA028091BB0040
:103A4000E20FF32FF11D80838091FE02811150CF90
:103A500081E08093F70284EA8093BC001092FF0219
:103A60001ACF85EC8093BC001092FF0280917802FF
:103A7000803230F4E0917802F0E0E85AFD4F108295
:103A80006091780270E0E091F102F091F20288E535
:103A900092E0099510927802FECE1092FD0228CF96
:103AA000CF92DF92EF92FF92CF9310922703109262
:103AB000260398EEC92E93E0D92EE12CF12CC0926A
:103AC0002803D0922903E0922A03F0922B0384E189
:103AD00091E0909325038093240385EC90E09093EC
:103AE00031038093300384EC90E090933303809310
:103AF000320380EC90E0909335038093340381ECA3
:103B000090E0909337038093360382EC90E090939B
:103B100039038093380386EC90E090933B038093C5
:103B20003A0310923D0310923E0310923F0310920D
:103B3000400310921B0410921A04C0921C04D092ED
:103B40001D04E0921E04F0921F0486E291E090931F
:103B5000190480931804109267041092660486E793
:103B600091E0909365048093640489E080936804F5
:103B7000CFEFC09369048AE080936A048BE080935E
:103B80006B048CE080936C048DE080936D048EE078
:103B900080936E0410926F0410927004109271045E
:103BA000109272041092730461E080E10E94841309
:103BB000109227041092260420E830E03093290464
:103BC0002093280480E490E090932B0480932A04AF
:103BD00030932D0420932C0490932F0480932E0473
:103BE00010923A041092310410923004109233046F
:103BF0001092320461E060933904609338048FEFCF
:103C00009FEF90933704809336049093350480930C
:103C1000340460933B0410923C0410923E041092D2
:103C20003D048AE491E0909325048093240410924B
:103C3000400410923F0488E194E090934204809302
:103C400041041092440410924304C0934804C0936A
:103C50004904C0934A04C0934B04C0934C0480E8C9
:103C60009AE1A6E0B0E08093590490935A04A0939F
:103C70005B04B0935C0480EA96E8A1E0B0E0809336
:103C80005D0490935E04A0935F04B093600480E5AC
:103C900080936204609363041092FC031092FB0310
:103CA000C092FD03D092FE03E092FF03F092000465
:103CB00088E391E09093FA038093F9031092100443
:103CC00010920F0410921204109211041092140416
:103CD0001092130410921604109215048091170488
:103CE0008E7F8D7F8093170486958170682788E08A
:103CF0000E94FE0561E088E00E945E06EDE8FAE0C1
:103D0000E491E0930904E6E7FAE0E491F0E0EE0FD5
:103D1000FF1FEC59F54F8591949190930B0480937C
:103D20000A0460E087E00E945E068091170481FD2E
:103D300004C061E087E00E94FE0587E080930504EF
:103D4000ECE8FAE0E491E0930604E5E7FAE0E491B8
:103D5000F0E0EE0FFF1FE65AF54F85919491909396
:103D600008048093070484EF91E0A0E0B0E0809322
:103D7000D9039093DA03A093DB03B093DC038AE0CA
:103D8000E6E0F1E0A7EEB3E001900D928A95E1F74D
:103D90001092F10382E08093F2031092F7031092E5
:103DA000F80360E871E08DEC93E00E94061A69E880
:103DB00071E087EC93E00E94061A69E971E081ECFA
:103DC00093E0CF91FF90EF90DF90CF900C94061A84
:103DD000CF93DF93CDB7DEB76F970FB6F894DEBF02
:103DE0000FBECDBF789484B5836084BD85B58360F4
:103DF00085BD80916E00816080936E0092E090930B
:103E00008100809181008160809381008091800099
:103E10008160809380008091B10084608093B100C4
:103E20008091B00081608093B00086E880937A0032
:103E30001092C100E0913403F09135039083E0913A
:103E40003003F09131031082E0913203F09133039B
:103E500080E1808310923C03E0913803F0913903B4
:103E600086E08083E0913603F09137038081886992
:103E70008083E0913603F091370380818F7D8083CA
:103E800060E084E00E945E0661E08FE00E945E06D2
:103E900061E08FE00E94FE0562E088E20E948413E8
:103EA0000E947D1380E00E9425146CEA71E084E694
:103EB00094E00E94971968EE73E080E090E00E9421
:103EC000BF060E942C068091430490914404892BE4
:103ED00011F10E94471920912A0430912B048091FE
:103EE000280490912904213231050CF0CDC1B9018B
:103EF0006052710977FF02C06F5F7F4F75956795BC
:103F00008357910997FD019600E210E023E730E026
:103F10004AE855E0CCC120912A0430912B04C90114
:103F2000079697FD0796B3E095958795BA95E1F7C3
:103F30002091280430912904AC01429FC001439F85
:103F4000900D529F900D11240E94FC2890934404E0
:103F500080934304892B09F0BCCF0E94471981E06C
:103F600090E09093370480933604909335048093C7
:103F700034048093380480933904109231041092F1
:103F8000300410923304109232046BEC71E084E23E
:103F900094E00E9497190E9409160E947D1380E008
:103FA0000E94251463ED71E084E694E00E94971965
:103FB00068EE73E080E090E00E94BF068091CF023F
:103FC0009091D002009711F00E94982986E090E02D
:103FD0000E94FC288C0188E6F801808388E194E047
:103FE00092838183138280E290E09583848310938F
:103FF000D0020093CF020E942C0681E0F801838357
:10400000C8010E94A6170E947D1380E00E9425141B
:104010006BEE71E084E694E00E94971968EE73E01D
:1040200080E090E00E94BF061092140410921304E6
:1040300010921204109211041092100410920F04A6
:104040008DEC90E090931604809315048091050404
:10405000873108F04BC025E530E030931004209301
:104060000F042BEC30E0309312042093110420E96C
:1040700030E030931404209313042091680094E0FE
:10408000883054F091E08E303CF092E0843124F09E
:1040900091E0863109F490E0922B909368002DE630
:1040A00030E0883074F08E300CF4DFC284313CF0A4
:1040B00086310CF4DAC230E020E0863111F42CE6CF
:1040C00030E030930D0420930C0488300CF0D0C203
:1040D00091E001C0990F8A95EAF7892F80930E0429
:1040E00080911504909116040197F1F780911304C3
:1040F00090911404892B49F1E091BC02F091BD022A
:1041000023E0E93FF20709F1309739F0A389B48938
:104110009C918589809589238C93809117048E7F4B
:10412000809317041092BB021092BA0289EF93E0B9
:104130009093BD028093BC02E0910C04F0910D04B9
:10414000808190910E04892B808389EF93E0909376
:10415000D4038093D30381E08093EB038CE08093BE
:10416000EA031092EC031092ED032091E903809191
:10417000E803280F3327331F83EF9FEF821B930B36
:104180009093EE038093EF030E944E0860ED77E07A
:1041900080E090E00E94FE0668EC70E080E090E035
:1041A0000E94BF061092F70386E08093EA03109204
:1041B000EC0384E18093ED038091E9039091E8039F
:1041C000890F9927991F06962091EB03280F392F05
:1041D000311D8CEE9FEF821B930B9093EE03809327
:1041E000EF030E944E080E947D1380E00E94251478
:1041F00068E072E084E694E00E94971968EE73E04C
:1042000080E090E00E94BF060E947D13AE014F5FE8
:104210005F4F7A013AE0532E4DE6242E3324339437
:1042200057E0652E712C6FE0462E84E293E00E94E9
:104230002A09181619060CF09AC36FE771E0CE012F
:1042400047960E94061A0E94EA080B8D1C8D97FD66
:104250001DC28A30910509F419C289831A820F5F41
:104260001F4FB801CE0147960E94A619882359F323
:104270002F89388D8B8D9C8DB701820F931F0E94E3
:10428000F32A1C8F0B8FDFCFB9016054710977FFC0
:1042900002C06F5F7F4F759567958255910997FDB5
:1042A000019600E410E022E530E04AE657E09595FB
:1042B00087950E94CC1182E080934604809141044E
:1042C00090914204892B09F4CBC08CE38093450480
:1042D0000E942C0680914C0487FD1EC061E00E9464
:1042E0005E0661E080914C040E94FE0561E070E092
:1042F00080E090E00E94BF0660E080914C040E9444
:10430000FE056AE070E080E090E00E94BF0661E098
:1043100080914C040E94FE058091410490914204DA
:10432000892B09F45CC12091590430915A044091C1
:104330005B0450915C0460E072E18AE790E00E94C7
:10434000D42820513109410951095695479537958F
:1043500027952093B80064E086E895E00E94F21467
:1043600060912A04615084E294E00E94A71564E001
:1043700082E895E00E94F2148091460460E1813069
:1043800009F064E184E294E00E94A71564E08EE7FE
:1043900095E00E94F2148FE88093610480912804D4
:1043A000909129048038910509F030C180912A0448
:1043B00090912B048034910509F038C18091460416
:1043C000813009F046C18FE98093610412E16AED02
:1043D00084E294E00E94A715612F84E294E00E9499
:1043E000A71561E884E294E00E94A715609161043A
:1043F00084E294E00E94A71569ED84E294E00E94B3
:10440000A7158091460462E2813009F061EF84E2F1
:1044100094E00E94A71566E088E795E00E94F214F8
:104420008091410490914204892B09F414C1209198
:104430005D0430915E0440915F045091600460E03F
:1044400072E18AE790E00E94D428205131094109A5
:10445000510956954795379527952093B8007DCDFE
:1044600061E080914A040E945E0661E080914B0405
:104470000E945E0680914A04082E000C990BFC01F4
:10448000E259F54FE491F0E0EE0FFF1FEC59F54FC4
:10449000259134913093520420935104FC01EB5741
:1044A000F54FE491E093570480914B04082E000CE3
:1044B000990BFC01E259F54FE491F0E0EE0FFF1F7C
:1044C000EC59F54FA591B491B0935404A0935304C3
:1044D000FC01EB57F54FE491E09358048C91E82BE5
:1044E000EC9380913F0490914004892B09F434C0EF
:1044F0001FB7F8948091B902811127C0E8E7FAE06C
:104500008491EFE8FAE09491E82FF0E0EE0FFF1FBE
:10451000EB5CF54FA591B491EC91E92321F461E0B6
:104520008AE00E94FE0561E08AE00E945E068CB58A
:1045300080618CBD8CB580648CBD61E08DE00E9493
:104540005E0661E08BE00E945E068091B9028F5F9B
:104550008093B9021FBFBECE61E0809148040E94E3
:104560005E0661E0809149040E945E0680914804E5
:10457000082E000C990BFC01E259F54FE491F0E094
:10458000EE0FFF1FEC59F54F2591349130934E04F7
:1045900020934D04FC01EB57F54FE491E093550453
:1045A00080914904082E000C990BFC01E259F54F4B
:1045B000E491F0E0EE0FFF1FEC59F54FA591B49197
:1045C000B0935004A0934F04FC01EB57F54FE491D6
:1045D000E09356048C91E095E823EC937BCE809198
:1045E0003F0490914004892B31F0809162049091B6
:1045F00063040E94E20CE0915304F0915404908112
:1046000080915804809589238083A5CE80369105BA
:1046100089F480912A0490912B04409739F4809179
:104620004604813029F480E18093610412E0CFCE0A
:104630008FEAFACF80349105C9F780912A049091CE
:104640002B04809799F780914604813011F480E122
:10465000BBCE8FECB9CEE0915304F091540480812D
:1046600090915804892B808378CC2BE630E029CDBB
:104670008E3014F488502CCD863114F48E5028CD11
:10468000863111F080E02ACD80E428CDAF88B88C47
:10469000A114B10421F065010115110559F42B8D08
:1046A0003C8D21153105E1F5CE0147960E948D190B
:1046B000BCCD640146015FEF851A950AF601808141
:1046C000082E000C990B0E94CD27892B91F70150E1
:1046D00011090A0D1B1DF8018081082E000C990B91
:1046E0000E94CD27892B31F00C151D0518F00150C3
:1046F0001109F1CF0F5F1F4FA8014C195D095C8FA5
:104700004B8FAC14BD0420F4B601C5010E94E32A0E
:10471000EF89F88D8B8D9C8DE80FF91F1082BFCF2C
:10472000EF89F88D10E0309709F0108141E050E0FA
:10473000BE01695E7F4FCE0141960E94171A143563
:1047400009F002C1BE016F5E7F4F8DEC93E00E94C5
:10475000EF1922E030E050E040E0BE016F5E7F4F95
:10476000C7010E94171A89819A81D12C009719F0EC
:104770000E94B725D62EC7010E948D1925E030E092
:1047800043E050E0BE016F5E7F4FC7010E94171AE1
:1047900089819A81C12C009719F00E94B725C62EF5
:1047A000C7010E948D1928E030E046E050E0BE01CC
:1047B0006F5E7F4FC7010E94171A89819A81B12CC1
:1047C000009719F00E94B725B62EC7010E948D19D7
:1047D000CE010B960E94AE18AD84A11002C0AA248F
:1047E000A3944C85411101C041E02B8530E020535A
:1047F000384F253EF7E03F0710F42AEE37E08901F5
:10480000005D1740902E1A8219828B2D652D0E9413
:10481000B428982F990F890F880FB80EBA828C2D63
:104820000E94B428982F990F890F880FC80ECB8249
:104830008D2D0E94B428982F990F890F880FD80EBC
:10484000DC826A2D70E0EAE2FAE081E0841730F45D
:104850009491690F711D8F5F3196F8CF433028F026
:10486000802F837011F46F5F7F4FC9018D5C97407B
:104870009695879596958795029D9001039D300D9D
:10488000129D300D1124820F931F0596860F971FDE
:10489000B3010E94C028811101C087E08D838A2D59
:1048A000652D0E94B428982F990F890F880FA80EA4
:1048B000AE82842F0E94B428982F990F890F880FF9
:1048C000480F4F83892D0E94B428982F990F890F84
:1048D000880F080F088721E048E050E0B701809179
:1048E000CF029091D0020E947E184F8E21E041E0CD
:1048F00050E0BE01615E7F4F8091CF029091D00267
:104900000E947E1841E050E0BE01635E7F4F8091BF
:10491000CF029091D0020E94CF178D8D4D8E8F7750
:104920008E8F21E042E050E0BE01635E7F4F8091B8
:10493000CF029091D0020E947E180E946719CE018A
:1049400041960E948D19B0CEBE016F5E7F4F87ECFD
:1049500093E0173539F01D3491F7BE016F5E7F4F3C
:1049600081EC93E00E94EF190E946C1AE8CFE3E417
:10497000FAE08491E9E8FAE00491E2E7FAE01491C0
:10498000112309F48FC081110E94D505E12FF0E0B9
:10499000EE0FFF1FE65AF54FA591B491EC910E234F
:1049A00009F480C00E94F2066093BE027093BF02B9
:1049B0008093C0029093C10261E08FE00E94FE05E7
:1049C0000E94F2060091C2021091C3022091C4021B
:1049D0003091C502601B710B820B930B683E7340D4
:1049E0008105910508F451C00E94F2066093C2024D
:1049F0007093C3028093C4029093C502CE01419686
:104A00000E94AE188E891F928F938D891F928F936B
:104A10008C891F928F9381E292E09F938F931F92D4
:104A20008AE08F93FF92EF920E94FA2AB701CE019B
:104A30000B960E94061A8091CD039091CE030FB67B
:104A4000F894DEBF0FBECDBF009709F443C06B855D
:104A50007C8561157105E1F14091CF035091D00340
:104A60002F8538894217530798F10E94F32A8F85C2
:104A700098899093D2038093D103188A1F86CE0120
:104A80000B960E948D190E94671980E090E0892B97
:104A900009F4C0CB0E943609882309F4BBCB0E94DD
:104AA0000000B8CB0E94F2060091BE021091BF0236
:104AB0002091C0023091C102601B710B820B930BDD
:104AC000603375478105910508F47ACF60E075CFB2
:104AD0000E9498298B859C859093CE038093CD036B
:104AE0008D859E859093D0038093CF038F85988981
:104AF0009093D2038093D1031C861B861E861D864D
:104B0000BCCF81EC93E00E948D1987EC93E00E946A
:104B10008D198DEC93E00E948D1988E391E09093BC
:104B2000FA038093F9038091BC029091BD02895FE2
:104B3000934071F4E0910C04F0910D049081809108
:104B40000E048095892380831092BD021092BC02CE
:104B50008AE491E090932504809324048091430497
:104B600090914404009711F00C94982908951F9394
:104B7000FC0199278827BC01E89411911032E9F3D0
:104B8000193010F01E30C8F31B3251F01D3249F4B9
:104B9000689406C00E94DE25610F711D811D911D64
:104BA000119110531A30B0F33EF4909580957095A2
:104BB00061957F4F8F4F9F4F1F910895592F482F19
:104BC000372F262F660F771F881F991F660F771FB5
:104BD000881F991F620F731F841F951F660F771F11
:104BE000881F991F0895ABE0B0E0E9EFF5E20C945F
:104BF0007D287C013B018A01FC011782168283819A
:104C000081FFC8C1CE0101965C01F7019381F301D8
:104C100093FD859193FF81913F01882309F453C14E
:104C2000853239F493FD859193FF81913F0185325F
:104C300029F4B70190E00E94EC27E7CF912C212CBA
:104C4000312CFFE1F31538F08B3211F190F4803202
:104C500009F1833229F137FC3CC020ED280F2A30BE
:104C600050F536FE20C08AE0989E200D1124922E29
:104C700006C08D3291F0803371F7689430F8F301FB
:104C800093FD859193FF81913F018111DACF21C07E
:104C9000689431F8689432F8F2CF689433F8EFCF23
:104CA000689434F8ECCFEAE02E9E200D1124222ED9
:104CB000689435F8E4CF8E3229F436FC04C1689448
:104CC00036F8DDCF8C3619F4689437F8D8CF8836AB
:104CD000B1F2982F9F7D95549330E0F08336A1F187
:104CE0008337C1F1833509F063C02801F2E04F0E2C
:104CF000511CF801C080D180692D70E036FC02C0E3
:104D00006FEF7FEFC6010E94D6274C01689437F8F9
:104D100082010AC00C5F1F4FFFE3F983882483944C
:104D2000912C6501E89437F833FE2DC0522C811484
:104D3000910471F5552009F468CFB70180E290E045
:104D40000E94EC275A94F6CFF801808189830E5F88
:104D50001F4FE4CF2801F2E04F0E511CF801C08034
:104D6000D180692D70E036FC02C06FEF7FEFC60185
:104D70000E94E1274C018201D5CFB70180E290E08B
:104D80000E94EC272A942814190409F0B0F7CECF1A
:104D9000F60137FC859137FE81916F01B70190E0F4
:104DA0000E94EC2751105A94F1E08F1A9108BFCF5E
:104DB000843619F0893609F077C0F80137FE6BC0E8
:104DC00060817181828193810C5F1F4FF32DFF768B
:104DD0003F2E97FF09C090958095709561957F4F04
:104DE0008F4F9F4F689437F82AE030E0A5010E946A
:104DF0001C28C82ECA188C2C432C36FE0CC0E894F4
:104E000040F8C91440F434FE05C032FC03C0F32D51
:104E1000FE7E4F2E892C44FE95C0FE01EC0DF11D47
:104E20008081803309F087C0242D297E422E842D75
:104E30008870582E43FC95C040FE8FC09C2C821475
:104E400018F42C0C922C981844FE91C0B70180E302
:104E500090E00E94EC2742FE09C088E790E041FE06
:104E600002C088E590E0B7010E94EC27C91408F45D
:104E70008AC0CA94D12C9FEFC91AD90ACA0CDB1C6C
:104E8000F60182916F01B70190E00E94EC27AC140B
:104E9000BD04B1F74FCF60817181072E000C880BE4
:104EA000990B0E5F1F4F92CFD32CE894D4F82AE0D1
:104EB00030E0853739F1232D297FD22E8F3601F14D
:104EC00048F48835A9F0F701868197812B96E2E1B5
:104ED0000C949928803749F08837A9F7D4FE02C08E
:104EE0006894D2F820E130E00DC06894D4F8F6CF91
:104EF00034FE03C0822F8660D82E20E132E002C04B
:104F000028E030E0F801D7FE0FC060817181828116
:104F100093810C5F1F4FA5010E941C28C82ECA1840
:104F20003D2CE89437F867CF6081718190E080E094
:104F30000E5F1F4FF0CF42FC02C0839478CF839462
:104F4000839475CF842D867809F471CFF6CFB7019D
:104F500080E290E00E94EC2783948214C0F3512CED
:104F600073CF522C5818821408F46ECFF8CF842DCA
:104F7000867809F47BCF8BE241FE80E247FC8DE22C
:104F8000B70190E071CFB70180E390E00E94EC2779
:104F90009A946CCF8FEF9FEF99CF91110C947A2850
:104FA000803219F089508550C8F70895FC010590AA
:104FB000615070400110D8F7809590958E0F9F1F1B
:104FC0000895FC016150704001900110D8F7809560
:104FD00090958E0F9F1F08950F931F93CF93DF938C
:104FE000182F092FEB018B8181FD09C01FEF0FEFF7
:104FF000812F902FDF91CF911F910F91089582FF04
:1050000014C02E813F818C819D81281739073CF483
:10501000E881F981CF0101969983888310838E817D
:105020009F8101969F838E83E3CFE885F985812F49
:105030000995892BA1F3DACFFA01AA27283051F17B
:10504000203181F1E8946F936E7F6E5F7F4F8F4FB9
:105050009F4FAF4FB1E03ED0B4E03CD0670F781F18
:10506000891F9A1FA11D680F791F8A1F911DA11DFD
:105070006A0F711D811D911DA11D20D009F4689436
:105080003F912AE0269F11243019305D3193DEF6DE
:10509000CF010895462F4770405D4193B3E00FD094
:1050A000C9F7F6CF462F4F70405D4A3318F0495D7F
:1050B00031FD4052419302D0A9F7EACFB4E0A69562
:1050C0009795879577956795BA95C9F70097610584
:1050D000710508959B01AC010A2E069457954795DA
:1050E00037952795BA95C9F7620F731F841F951FCF
:1050F000A01D08959927882708952F923F924F92D7
:105100005F926F927F928F929F92AF92BF92CF9257
:10511000DF92EF92FF920F931F93CF93DF93CDB760
:10512000DEB7CA1BDB0B0FB6F894DEBF0FBECDBFD8
:1051300009942A88398848885F846E847D848C84A9
:105140009B84AA84B984C884DF80EE80FD800C81B2
:105150001B81AA81B981CE0FD11D0FB6F894DEBF95
:105160000FBECDBFED010895991B79E004C0991FD2
:10517000961708F0961B881F7A95C9F780950895B1
:10518000AA1BBB1B51E107C0AA1FBB1FA617B7076D
:1051900010F0A61BB70B881F991F5A95A9F7809589
:1051A0009095BC01CD010895A1E21A2EAA1BBB1B4C
:1051B000FD010DC0AA1FBB1FEE1FFF1FA217B307E3
:1051C000E407F50720F0A21BB30BE40BF50B661FF9
:1051D000771F881F991F1A9469F7609570958095BD
:1051E00090959B01AC01BD01CF010895EE0FFF1F0B
:1051F0000590F491E02D09940F931F93CF93DF93C3
:105200008230910510F482E090E0E0917E04F0910C
:105210007F0430E020E0B0E0A0E0309799F4211561
:10522000310509F44AC0281B390B24303105D8F563
:105230008A819B816115710589F1FB0193838283CA
:10524000FE0111C040815181028113814817590725
:10525000E0F04817590799F4109761F012960C93F3
:10526000129713961C933296CF01DF91CF911F9125
:105270000F91089500937E0410937F04F4CF2115BD
:10528000310551F04217530738F0A901DB019A01AB
:10529000BD01DF01F801C1CFEF01F9CF90937F0489
:1052A00080937E04CDCFFE01E20FF31F8193919393
:1052B0002250310939832883D7CF20917C04309143
:1052C0007D04232B41F4209102013091030130939E
:1052D0007D0420937C04209100013091010121156F
:1052E000310541F42DB73EB74091040150910501BD
:1052F000241B350BE0917C04F0917D04E217F30749
:10530000A0F42E1B3F0B2817390778F0AC014E5F35
:105310005F4F2417350748F04E0F5F1F50937D04F1
:1053200040937C04819391939FCFF0E0E0E09CCF89
:10533000CF93DF930097E9F0FC013297138212823A
:10534000A0917E04B0917F04ED0130E020E0109741
:10535000A1F420813181820F931F20917C04309130
:105360007D042817390709F061C0F0937D04E093AC
:105370007C04DF91CF910895EA01CE17DF07E8F5AD
:105380004A815B819E0141155105B1F7E901FB831B
:10539000EA8349915991C40FD51FEC17FD0761F4B9
:1053A000808191810296840F951FE90199838883FA
:1053B000828193819B838A83F0E0E0E012968D9155
:1053C0009C9113970097B9F52D913C911197CD01C0
:1053D0000296820F931F20917C0430917D04281740
:1053E000390739F6309751F510927F0410927E04F8
:1053F000B0937D04A0937C04BCCFD383C28340814F
:105400005181840F951FC817D90761F44E5F5F4F14
:1054100088819981480F591F518340838A819B81DC
:10542000938382832115310509F0B0CFF0937F0477
:10543000E0937E049ECFFD01DC01C0CF1382128277
:10544000D7CFB0E0A0E0E7E2FAE20C947F288C012D
:10545000009751F4CB010E94FC288C01C801CDB704
:10546000DEB7E0E10C949B28FC01E60FF71F9C01DE
:1054700022503109E217F30708F49DC0D901CD91FC
:10548000DC911197C617D70798F0C530D10530F3D6
:10549000CE0104978617970708F3C61BD70B2297F0
:1054A000C193D1936D937C93CF010E949829D6CF5D
:1054B0005B01AC1ABD0A4C018C0E9D1EA0917E04AE
:1054C000B0917F04512C412CF12CE12C109731F537
:1054D00080917C0490917D048815990509F05CC049
:1054E0004616570608F058C08091000190910101BE
:1054F000009741F48DB79EB740910401509105018A
:10550000841B950BE817F90708F055C0F0937D044C
:10551000E0937C04F90171836083A0CF8D919C910D
:10552000119712966C90129713967C901397A8156A
:10553000B90559F56C0142E0C40ED11CCA14DB0454
:1055400020F1AC014A195B09DA011296159780F037
:105550006282738251834083D9016D937C93E114FD
:10556000F10471F0D7011396FC93EE93129776CF66
:1055700022968C0F9D1FF90191838083F301EFCF59
:10558000F0937F04E0937E0469CF4816590608F42F
:105590002C017D01D3019ACFCB010E94FC287C0114
:1055A000009749F0AE01B8010E94E32AC8010E94A9
:1055B0009829870153CF10E000E050CF81E090E0C0
:1055C000F8940C942A2BFB01DC0102C001900D928F
:1055D00041505040D8F70895DC0101C06D9341500F
:1055E0005040E0F70895FB01DC0101900D9200208E
:1055F000E1F70895AEE0B0E0E0E0FBE20C948B2828
:105600000D891E898F89988D26E02C831A83098342
:1056100097FF02C080E090E801979E838D83AE01E2
:10562000455E5F4F698D7A8DCE0101960E94F3250C
:105630004D815E8157FD0AC02F813885421753077F
:105640000CF49A01020F131FF80110822E96E4E069
:105650000C94A72815E0CFE4D5E004C0FE010E9419
:0E566000F6282196C035D107C9F7F894FFCF80
:10566E000000800480007EFF06000100000000EFB5
:10567E00000000006C099A08C708B9092A09D60863
:10568E001C0900000000C0149314CC17D4058C1410
:10569E0079146A1400000000F1099A08CC17D40599
:1056AE004D0A630AD90900000000200F9A08CC1792
:1056BE008B082B0CD405C5119D11B911AD112D12EE
:1056CE00D405E60C50179B0BE40BE610C9105110D5
:1056DE00F20F0000000033149A08CC178B0820003C
:1056EE0030303A30303A3030005765747465723A63
:1056FE00204C6164652E2E2E004E616368726963C4
:10570E0068743A204C6164652E2E2E00426F6F74C1
:10571E0020312F343A20537461727465204932431C
:10572E002026204F4C45442E2E2E004F4C45442013
:10573E004F4B00426F6F7420322F343A20537461F6
:10574E00727465205254432E2E2E00426F6F7420B9
:10575E00332F343A20537461727465204446506C72
:10576E00617965722E2E2E00426F6F7420342F34A5
:10577E003A20416C6C65732067656C6164656E21BF
:10578E0000253032643A253032643A2530326400D6
:00000001FF
